:100000000C9431010C944E010C944E010C94DC14B0
:100010000C944E010C944E010C944E010C944E0124
:100020000C944E010C944E010C94841B0C94581C9F
:100030000C94BB160C944E010C944E010C944E0182
:100040000C944E010C944E010C944E010C944E01F4
:100050000C944E010C945E170C944E010C944E01BE
:100060000C944E010C944E010C944E010C944E01D4
:100070000C944E010C944E010C944E010C944E01C4
:100080000C944E010C944E010C944E010C944E01B4
:100090000C944E010C944E010C944E010C944E01A4
:1000A0000C944E010C944E010C944E012B00140044
:1000B0001A00080015001700E000040016000700F1
:1000C00009000A00E3001D001B00060019000500DE
:1000D000000000008B2421522C0029222A0013004A
:1000E00012000C0018001C00E50033020F000E0087
:1000F0000D000B00E400380037003600100011003E
:10010000000000008A342252280000322B001E0218
:100110001F02200221022202E000340231023502D5
:10012000D100D200E3003400310035002E022E0051
:1001300000000000E20001002C0029222A00270212
:100140002602250224022302E50033004F0052005C
:1001500051005000E4003802370236022D002D0213
:1001600000000000E6002352280029223A001E0069
:100170001F002000210022003B0000002F00300063
:100180002F0230023C003D003E003F004000410095
:1001900000000000E20023522C0029222A00270040
:1001A0002600250024002300E50000004F00520037
:1001B000510050004500440043004200D200D100ED
:1001C00000000000E6000100280029220E03630061
:1001D0006C00610077003400340000000C037900EB
:1001E000660075006B007500000004030904090235
:1001F0002200010100A0FA0904000001030101002E
:1002000009211101000122400007058103080001B6
:10021000120100020000000846590100010001021D
:10022000000105010906A101050719E029E71500EC
:100230002501950875018102950175088101050761
:10024000190029FF150026FF009506750881000595
:10025000081901290595057501910295017503910C
:1002600001C011241FBECFEFDAE0DEBFCDBF11E029
:10027000A0E0B1E0EEECFDE302C005900D92A033EA
:10028000B107D9F722E0A0E3B1E001C01D92A0318F
:10029000B207E1F70E9469120C94A61E0C940000AC
:1002A0008330B8F46830A8F4463098F450E096E013
:1002B000699F400D511D1124FA0190E3899FE00DC3
:1002C000F11D1124EE0FFF1FE455FF4F859194910E
:1002D000089581E090E008950E945001089581E022
:1002E000089581E008950E947101089508950E9483
:1002F00076010895A5E0B0E0E0E8F1E00C94261E58
:1003000049835A833091370189819A81311119C00B
:10031000662399F0222389F00E94A706182F682FE0
:1003200089819A810E94830669817A81812F0E9446
:10033000550D2596E3E00C94421E0E949506182F59
:10034000F3CF0E94A70669817A81F1CFFC01262FA5
:10035000408151816281738184810E947A01089574
:1003600081E00895CF93DF93EC0160E00E94A60145
:10037000BE010E947701DF91CF91089508950E94F8
:1003800052050E94BE012FEF84E39CE02150804083
:100390009040E1F700C0000008950E94BF010E9454
:1003A000821708950E94BF010E94931708950F932A
:1003B0001F93CF93DF938C0161E00E94A601EC01B3
:1003C000B8010E947301811106C080E0DF91CF91D6
:1003D0001F910F910895B801CE010E94F813882350
:1003E000A1F3B801CE010E948E12882371F3B801E7
:1003F000CE010E946A13882341F3F8018281882389
:1004000061F0C330FCE7DF07E9F058F4C115ECE711
:10041000DE07A9F0C130DC47B9F0C8010E946F01C6
:10042000D5CFCB358CE7D807A9F0CC35ECE7DE0784
:1004300071F0CA35DC4789F70E94D80AEECF0E94D6
:10044000CD01C3CF0E94E00A0E94D201BECF0E941C
:10045000CE0AE3CF0E94DC0AE0CF0E9498160E94E9
:10046000540208950E9458020E949D16089508950E
:1004700081E008950895CF93DF93D82F0E9438022A
:10048000C82F882319F08D2F0E943A028C2FDF91FC
:10049000CF9108950895CF93C82F0E9437028C2FD3
:1004A0000E943B02CF91089580E00E944B02089584
:1004B0000E9402160E944B020895CF930E940216DA
:1004C000C82F809132018C1779F0C09332010E94BD
:1004D0002717609333017093340180933501909313
:1004E00036018C2F0E944B02CF910895ABE0B0E013
:1004F000ECE7F2E00C94271E4F83588769877A87D0
:100500008B8761110E94190A1E821D8285E0FE01FF
:100510003796DE01119601900D928A95E1F78C8154
:100520009D81892B61F449815A816B817C818D8108
:100530009E810E9441092B96E2E00C94431E898122
:100540009A8189238F3F79F3CE0101960E94B001F1
:100550008111E9CFF0CFFC01808191810E94D90601
:100560000895CF93C82F8823B9F08CEF8C0F813A70
:10057000A8F46C2F80910001909101010E94331624
:10058000882329F08C2F0E94D9090E943A0A8C2FC7
:100590000E94D1090E943A0ACF91089580E28C0FFF
:1005A0008830D0F7C77081E001C0880FCA95EAF79C
:1005B0000E94FC09EFCF882341F09CEF980F913AFD
:1005C00028F40E94D9090E943A0A089590E2980FEF
:1005D0009830D8F7877091E001C0990F8A95EAF7B3
:1005E000892F0E94020AEFCF1F93CF93DF93182F1A
:1005F000EB010E94B102209739F4812F0E94DB02A7
:10060000DF91CF911F9108958FE99FE00197F1F756
:1006100000C000002197EFCF70E060E0893311F453
:1006200060E570E00E94F4020895882321F00E94A2
:10063000FC090E943A0A0895882321F00E94020AC8
:100640000E943A0A0895B0E0A0E0E9E2F3E00C94D9
:10065000201E6C01D62FC72FFC0112810581029547
:100660000F700E94F209E82E8823E9F0E12E112391
:10067000D1F08C2F807F803451F080E28D0F883054
:10068000F8F0011104C08C2F807E8032C9F0809177
:10069000EC0182FF15C082E00E949D0A0E94F209CF
:1006A00091E0E82EE926BC2EB2949FE0B922FBE04F
:1006B000FB15B8F1EB2DF0E0E855F14E0C94111E4E
:1006C000E12CF1CF0C2F0F70C07F11F00295007F4D
:1006D000112399F0002359F080E28D0F883010F03B
:1006E000D11107C0802F0E94FC090E943A0A8D2F69
:1006F00063C0802F0E940C0AF8CF8D2F0E94DB026E
:10070000002379F080E28D0F883010F0D11104C001
:10071000802F0E94020A03C0802F0E94120A0E94AA
:100720003A0A2B2D2850330B2430310520F40E9437
:1007300002160E944B02EE2089F00E94EE0980FD15
:100740000DC0F60112820E94E8090E94E105C6016F
:100750000E941E050E94E8090E94F105CDB7DEB790
:10076000E9E00C943C1E2C2F2F70F22EC07FC0327B
:1007700019F0F29480EFF822DD2381F0D13009F4F2
:1007800049C0112309F451C0002309F448C0F601FF
:10079000858180FFACCF8F70858341C08091EC0153
:1007A00082FD15C0112359F0FF2029F08F2D0E94E2
:1007B000FC090E943A0A80E00E94B102B2CF80E0B8
:1007C0000E94DB02FF2009F4ACCF8F2DA2CF1123B2
:1007D00081F0011106C00E941C0A8F290E94150396
:1007E000A0CF0130C1F70E941C0A8F290E94230A62
:1007F00098CF011106C00E94300A8F2D0E941C0361
:1008000090CF013009F48DCF8F2D0E941C030E94E0
:10081000300A87CF112329F0063008F082CF8F2DC0
:10082000DDCF053008F07DCFE8CF002331F3D93399
:1008300049F4FFEF27EE33E0F15020403040E1F77C
:1008400000C000008D2F0E94DB026BCF8C2F8370C5
:10085000A1F5111166CF4D2F429546954770440F73
:10086000440F2D2F2F7030E0042E02C0220F331FB3
:100870000A94E2F790E080E0D4FF09C08FE090E0B6
:1008800002C0880F991F4A95E2F780959095C6950A
:10089000C695C370822B932BC23049F058F4C130F7
:1008A00019F00E94B1053DCF0E94A8053ACF0E94E1
:1008B000BA0537CF0E94A50534CF8695112311F0D4
:1008C0008C2F8170882309F42CCF4D2F42954695AB
:1008D0004770440F440F2D2F2F7030E0042E02C0BC
:1008E000220F331F0A94E2F790E080E0D4FF09C0A2
:1008F0008FE090E002C0880F991F4A95E2F780953B
:100900009095C695C695C370822B932BC23049F043
:1009100058F4C13019F00E941C0603CF0E94130640
:1009200000CF0E942506FDCE0E94C905FACECF70E9
:10093000112329F08C2F0E94E1058D2F4FCF8D2F91
:100940000E941C038C2F0E94F105EBCED23F41F197
:1009500060F4D03FB9F0D13F81F0112309F446C0D3
:100960000111C5CE8C2F8F711FC0D33F01F1D43F31
:10097000A1F78091EC0182FD24C08C2F8F7111238F
:1009800011F312C0112341F0053008F0CACE8C2FAC
:100990008F710E940306C5CE063008F0C2CEF7CF95
:1009A0008C2F8F711111CFCF0E94E105BACE112388
:1009B00029F08C2F8F710E94D505B3CE0E94D005EF
:1009C000B0CE112349F0CF718C2F0E94E10563E076
:1009D0008C2F0E947F0AA5CE81E00E949D0A0230E2
:1009E00008F49FCE82E00E949D0A9BCE002359F01E
:1009F000D93309F027CF8FEF97EEE3E08150904095
:100A0000E040E1F71DCF8C2F8F719DCF0F931F9387
:100A1000CF93DF93EC01688179818A810E94E4069B
:100A20008C010E942E060E94A405B801CE010E94EE
:100A30002303DF91CF911F910F910895CF93DF93FF
:100A4000EC018B819C81892B29F0888199818923F4
:100A50008F3F51F4DF91CF910895CE010E9406059A
:100A6000CE010E94B201F6CFCE010E94D7018111C2
:100A7000F4CF0E94F209882369F38A81882351F315
:100A80008091EC0182FFE6CF82E00E949D0AE2CFD6
:100A90000E94190A0E943A0A08950E94E1090E94E0
:100AA000480508950E94090A0E944D0508959295EF
:100AB0009F70963091F058F4925F9F70923058F486
:100AC000803F19F030F4883E30F481E008959A5F59
:100AD000F4CF843FD1F380E00895883EB0F3813FA6
:100AE000D1F7F3CFFC0183819481892B29F0808198
:100AF000918189238F3F11F480E008958081918155
:100B00000E94D9060E9457050895A5E0B0E0EBE8E1
:100B1000F5E00C94271E2596E2E00C94431EA6E017
:100B2000B0E0E5E9F5E00C94271E2696E2E00C948F
:100B3000431E08950E94990508950E949A05909376
:100B4000530180935201089508950E949D050895D0
:100B50002091520130915301822B932B0E949D05CD
:100B600008952091520130915301822393230E94D2
:100B70009D050895209152013091530182279327BA
:100B80000E949D0508950E94990508950E94C3053D
:100B900008950E94C60590935101809350010895D5
:100BA00090E080E00E94C905089521E030E0A901AD
:100BB00002C0440F551F8A95E2F7CA010E94C90579
:100BC000089521E030E002C0220F331F8A95E2F73A
:100BD0008091500190915101822B932B0E94C90565
:100BE000089521E030E002C0220F331F8A95E2F71A
:100BF000209530958091500190915101822393234B
:100C00000E94C905089521E030E002C0220F331F81
:100C10008A95E2F7809150019091510182279327A4
:100C20000E94C90508952091500130915101822BF5
:100C3000932B0E94C90508952091500130915101D4
:100C4000822393230E94C905089520915001309179
:100C50005101822793270E94C90508950895262FE0
:100C6000277091E001C0990F2A95EAF723E0769565
:100C700067952A95E1F7660F771F660F771FFA01D0
:100C8000E60FF71F50E040E0682F70E08191DF0130
:100C900011979B01042E02C0369527950A94E2F71E
:100CA000217021952827292328272C934F5F5F4FF8
:100CB0004430510559F70895A82FA77023E0969561
:100CC00087952A95E1F7880F991F880F991FFB01D7
:100CD000E80FF91F50E040E080E0219130E00A2E5B
:100CE00002C0369527950A94E2F721703327042E27
:100CF00001C0220F0A94EAF7822B4F5F5F4F443006
:100D0000510559F70895262F983070F4863060F415
:100D1000682F70E086E0989F600D711D112448E3F4
:100D200051E0822F0E942F060895292F983068F4F1
:100D3000863058F490E068E371E036E0239F800D40
:100D4000911D11240E945C06089580E00895B0E092
:100D5000A0E0EDEAF6E00C94201E7C010091500129
:100D6000109151018091520190915301082B192B40
:100D7000CFE0D0E0CC24C394D12CBC2EC6010C2EE5
:100D800002C0880F991F0A94E2F780239123892BD0
:100D900049F4219790F7B12C8B2DCDB7DEB7E9E060
:100DA0000C943C1EB7018C2F0E94610D019789F3B2
:100DB000F3CFCF93DF93EC010E94A706BE010E9400
:100DC000610DDF91CF9108951F93CF93DF93EB01D6
:100DD00090913701992339F0CB010E94D906DF9118
:100DE000CF911F910895882369F0CB010E94A70637
:100DF000182F682FCE010E948306BE01812F0E940A
:100E0000610DEDCFCB010E949506182FF6CF1F93F1
:100E1000CF93DF93C091540116E0809155018C135C
:100E200004C0DF91CF911F910895D0E01C9FF00185
:100E30001D9FF00D1124EA5AFE4F408151816281BD
:100E40007381848195810E948F052196C770E5CFBB
:100E500040918601509187016091880170918901CC
:100E600080918A0190918B010E948F0508952091B5
:100E700054019091550156E0291302C080E0089575
:100E800030E0529FF001539FF00D1124EA5AFE4FBB
:100E90007181761306C07081781303C07281741358
:100EA00004C02F5F3F4F2770E7CF81E008951F9365
:100EB000CF93DF9380918B01807F09F04BC08091AD
:100EC0008801882309F446C080915401C0915501DE
:100ED00040918601509187016091890170918A014A
:100EE000D42FD52316E0C817A9F190E0611571053C
:100EF000A9F1DF3F99F1189FF001199FF00D11241E
:100F0000DF01AA5ABE4F11962C911197251326C0C6
:100F10002C91241323C012962C91129721111EC0DC
:100F200013962D913C91261B370B283C3105B0F4CC
:100F300080918B018F70806180938B01E55AFE4F09
:100F400080818F708061808386E891E00E941E0519
:100F50000E940707DF91CF911F9108950196877036
:100F6000C2CFA1E1B0E0E7EBF7E00C941D1E8C01CD
:100F700085E0F801DE011D9601900D928A95E1F75A
:100F8000F801F28086E8A82E81E0B82E4091890110
:100F900050918A014115510509F45AC19091860179
:100FA00020918701892F82238F3F09F451C1C0808E
:100FB000D18083809480E0908801B401641B750B1C
:100FC000EE2009F4F6C080918B01382F307F683C09
:100FD000710508F0AFC031117AC0EF2C2D1116C089
:100FE0009C1114C0F11012C08F70806180938B012E
:100FF0000E942807C5010E941E0580918B01F801FF
:1010000085838E2D6196ECE00C94391E8114910439
:10101000C9F18C2D8D218F3FA9F181E08F2580FFB3
:1010200005C04F2D6D2D8C2D0E9437078114910422
:1010300059F18C2D8D218F3F39F181E08F25F82FCB
:10104000F170BF2E80FF39C04F2D6D2D8C2D0E9469
:101050003707A82E811131C0CD86DE868D859E850D
:101060000E94D906292F22952F70243078F49F7082
:101070002230A8F09923B9F0F8019581907F99F476
:10108000EA2CBFCF80E0CBCF80E0D9CF2A5F2F7092
:10109000223068F0C8010E941E05AB2CF1CF9923C5
:1010A00011F0882369F3805E883050F3F3CF803FDE
:1010B00038F3815F833070F7E3CFFF2009F4A1CFCD
:1010C00080918B01816080938B01E12C9ACF2D114F
:1010D00005C09C1103C0FF2009F486C0C8010E940E
:1010E0007205882319F1FF2009F180918B0180326C
:1010F00070F0209186013091870138872F831986FF
:101100009B868A868C87CE0107960E941E0586E004
:10111000F801A6E8B1E001900D928A95E1F70E94EE
:1011200057070E942807EE24E3946BCFC8010E9462
:101130001E05F9CF311114C0782D998A888AA6012D
:101140006F2D89890E94850586E891E00E941E0521
:1011500086E0F50111928A95E9F70E942807B5CF3C
:101160002D110EC09C110CC0F1100AC08583C8015E
:101170000E941E0586E0F50111928A95E9F741CF9C
:10118000C8010E947205882389F2FF2079F28091BC
:101190008B01803208F4BBCF20918601309187010A
:1011A0003A8329831B829D828C828E83CE01019695
:1011B000ACCF683C710508F03DC0EF2CFF2009F46E
:1011C000B5CF2D1129C09C1127C080918B0180FDC6
:1011D0001AC0982F907FB9F08583903F31F0982FF7
:1011E000907F905F8F70892B8583C8010E941E05B8
:1011F00086E0F801A6E8B1E001900D928A95E1F74A
:101200000E942807FECE86E0F801A6E8B1E0019032
:101210000D928A95E1F7F5CEC8010E947205811101
:1012200076CF80918B01816080938B01C8010E94F1
:101230001E05E7CE782D998A888AA6016F2D8989A7
:101240000E94850586E0F50111928A95E9F7D8CFCD
:10125000FF2009F46BCFC8010E947205E82E882395
:1012600009F464CF86E0F801A6E8B1E001900D92A0
:101270008A95E1F786E891E00E94AB020E94570749
:10128000BFCFACE0B0E0E7E4F9E00C94261E4F835A
:10129000588769877A878B879C87CE0107960E943B
:1012A000B1078823B1F08A859B85892B39F04F815E
:1012B0005885842F85238F3F09F06CC016E08091FC
:1012C000540190915501891343C02C96E3E00C948E
:1012D000421E86E0FE013796DE01119601900D92C6
:1012E0008A95E1F78A859B85892B41F38F819885C3
:1012F00089238F3F19F32091550130E0C9010196F0
:1013000087709927409154014817190671F40E947B
:101310005205109255011092540186E0E6E8F1E082
:10132000DF011D928A95E9F7C9CF96E0929FD0011F
:10133000939FB00D1124AA5ABE4FFE013196019021
:101340000D929A95E1F7809355010E940707B6CF59
:10135000819FC00111248A5A9E4F0E94B1078823A1
:1013600009F4B3CFE09154011E9FF0011124EA5A11
:10137000FE4F4081518162817381848195810E94F9
:101380008F058091540190E0019687709927809392
:10139000540195CF69857A858B859C850E948F0540
:1013A0008DCF682F80910001909101010E946916F4
:1013B0000895682F80910001909101010E946C16A0
:1013C000089580910001909101010E946F16089587
:1013D00080919401859585958595089580919401D6
:1013E0008770089590919401977081E009F480E0EE
:1013F000089580919F01089590919F01892B80937A
:101400009F010895809590919F01982390939F014B
:10141000089510929F01089590919E01892B8093C9
:101420009E010895809590919E01982390939E012E
:10143000089510929E010895809195010895089550
:101440000E941F0A08959091EC0192FF08C09091AC
:101450009501981721F0809395010E94200A089524
:1014600080919501882329F01092950180E00E94D7
:10147000200A0895CF93DF93E0910001F0910101DC
:1014800080919F018083E0910001F09101018081B2
:1014900090919E01892B808390919501992381F0F1
:1014A000E0910001F09101018081892B808380917E
:1014B0000001909101010E94211681110E94300AC1
:1014C000C0910001D091010148E050E06CE871E06A
:1014D000CE010E944E1E892B59F088E0FE01ACE837
:1014E000B1E001900D928A95E1F7CE010E941616A7
:1014F000DF91CF91089508950E947B0A08959091FD
:10150000EC0192FF11C098E0899F90011124622B99
:10151000609394010E94E1058091940185958595E1
:1015200085950E947C0A08950E94E1050895109215
:10153000940180E00E947C0A089590919401809526
:10154000892380939401282F277091F4282F082E47
:10155000000C330B9217130659F09091EC0192FF97
:1015600007C08595859585950E94F1050E94970A8B
:1015700008959091EC0192FB222720F9281769F039
:1015800080FB92F99093EC018091EB019091EC013A
:101590000E94010B82E00E949D0A08958091EC0157
:1015A00082FB882780F991E089270E94B90A089573
:1015B00081E00E94B90A089580E00E94B90A089566
:1015C0006FEF7FEF90E080E00E94901E089590E022
:1015D00080E00E946C1E21E0873E9E4F09F020E0D3
:1015E000822F089582E090E00E94641E089583E0B7
:1015F00090E00E94641E089584E090E00E946C1EBA
:101600000895BC0184E090E00E94901E0895AB0113
:10161000BC018FE090E00E94841E0895AB01BC01E4
:1016200083E190E00E94841E089560E070E0CB01A9
:101630000E940E0B089560E070E0CB010E94070B42
:101640000E94150B089567EE7EEF90E080E00E9407
:10165000901E60E082E090E00E94721E60E083E0F5
:1016600090E00E94721E109253011092520160E0AD
:1016700074E184E090E00E94901E60E086E090E0DB
:101680000E94721E6FEF87E090E00E94721E40E0A1
:1016900050E0BA0188E090E00E94841E60E08DE096
:1016A00090E00E94721E40E050E0BA0188E190E0B4
:1016B0000E94841E60E087E190E00E94721E40E07C
:1016C00050E0BA018CE190E00E94841E70E060E07E
:1016D00080E290E00E94901E40E050E0BA0188E174
:1016E00090E00E94841E0E941B0B08950E94230B11
:1016F0000895682F8EE090E00E94721E0895A5E084
:10170000B0E0E5E8FBE00C94251E0E941B178C015D
:101710008091A0019091A10180179107A1F08FEF16
:1017200089838A831B820E941B178160782F9D8387
:101730008C8349815A816B818D810E94760210933E
:10174000A1010093A0012596E4E00C94411E0E94A3
:1017500027176093AE017093AF018093B00190930F
:10176000B1016093AA017093AB018093AC01909397
:10177000AD010895089508950E94BB0B0895089542
:101780000E94BF0B089581E008958BE89EE00E94BF
:10179000F8150E94BA0B0E94BC0B08950E945D10C0
:1017A0000895089508950E94D10B0E94D20B0895C8
:1017B0000E948E0E0E944A0208950E9412170E94F3
:1017C0004B0E0E9478100E94BE0F0E94D80B0E9400
:1017D00076120E9482100E94C00B0895A5E0B0E02E
:1017E000E4EFFBE00C941F1E0E94C30B81110AC0A2
:1017F0000E947F0B0E945D100E945D022596EAE028
:101800000C943B1E0E94E10F82EAA82E81E0B82EC4
:10181000750110E0F70101917F01812F0E94B40E44
:101820001F5F183009F440C00817A1F38091B2017E
:1018300081FD0E94BA0E0E94CE0BC82E10E0812FAF
:101840000E94B40E082FF50181915F01081731F154
:10185000F12CEE24E394D02ED8268D2D8E21B1F0DC
:10186000CC20A1F0F9821A8391E0802F8E2109F417
:1018700090E09B830E941B178160782F9D838C834F
:1018800049815A816B818D810E947602F394EE0C1E
:10189000F6E0FF12E2CFF501319700831F5F1830A9
:1018A00071F60E94A70BA6CF0813C0CFA1CF1F933C
:1018B000CF93DF930E94660DEC01C11582E5D80736
:1018C00008F03FC0C11590E5D90708F0C2C0C83E76
:1018D000D105C0F4C03ED10580F4C53AD10548F425
:1018E000C430D10550F4C130D10539F0D0E0C0E0AA
:1018F00004C0CD3CD105D0F3D065CE01DF91CF91AE
:101900001F910895C11580E4D80708F053C0C11590
:1019100090E2D90708F0B7C0C11581E0D80730F3CD
:101920008D2F0E94080E182FCE0199270E94660D58
:10193000C12FD0E0DC2FCC27CC27DF71C82BD92BCF
:10194000DCCFC03892E5D907A8F4C03682E5D807C5
:1019500008F063C0C03492E5D90708F049C0C0322E
:1019600082E5D80788F1CF71D0E0DC2FCC27C16F9A
:10197000D06AC3CFC03C92E5D90780F48C2F8F7119
:10198000C03AD24508F45EC00E94080EC82FD0E0CD
:10199000DC2FCC27CC27DF71D062AFCFC03E82E5F1
:1019A000D80708F0A3CFDC2FCC27CC27DF71C06F7E
:1019B000D06AA3CFCE0199270E94660DCC27DF7095
:1019C000C82BD92BD06A99CF2C2F2695269590E23B
:1019D000299F900111248C2F8370C1E0D0E002C0B8
:1019E000CC0FDD1F8A95E2F7C22BD32BDD6885CFA4
:1019F0002C2F26952695277080E2289F9001112490
:101A00008C2F8370C1E0D0E002C0CC0FDD1F8A951F
:101A1000E2F7C22BD32BDC6870CF2C2F26952695AE
:101A2000277090E2299F900111248C2F8370C1E0D0
:101A3000D0E002C0CC0FDD1F8A95E2F7C22BD32B7A
:101A4000DA685BCFC82FD0E0DC2FCC27C46FD06A18
:101A500054CF8C2F8F710E94080E55E0D695C795F4
:101A60005A95E1F7CF70D0E0DC2FCC27282F30E05B
:101A700084FF05C044E0220F331F4A95E1F7C22BD3
:101A8000D32BD0693ACF8D2F8F710E94080E182F5B
:101A9000CE0199270E94660DC12FD0E0DC2FCC2704
:101AA000CC27DF71C82BD92B77CF462F783030F475
:101AB000663020F4672F0E946C01089590E080E06A
:101AC00008950E94550D0E94570C08958238910583
:101AD000B9F1B0F48133910509F47DC048F489323D
:101AE000910509F46DC08A32910509F47BC008950F
:101AF0008533910509F45FC08933910509F1089593
:101B0000833E9105D9F138F4803E910529F1823E5A
:101B1000910579F10895863E9105D9F1873E9105A9
:101B200009F43EC0843E910541F52091EC0121FF6E
:101B300024C08091EB0184FD19C087EE90E00895E8
:101B40002091EB01237009F05AC02091EC0123FF92
:101B500014C089E290E008952091EB0120FD38C087
:101B60003091EC0130FF09C024FF43C090E080E0D9
:101B700008952091EB0122FDF7CF08952091EB010C
:101B800022FD3AC03091EC0130FD39C024FFF5CF81
:101B9000EDCF2091EB0123FFF0CF24FDE7CFCDCF98
:101BA0002091EB0123FD2EC03091EC0131FFEECFEF
:101BB00084EE90E008952091EB0125FFDECFC9CFA0
:101BC0002091EB0125FD21C02091EC0123FFD5CF11
:101BD00089E390E0D2CF2091EB0126FFCECF8AE2BD
:101BE00090E008952091EB0126FFC7CF81E390E0BC
:101BF000089583EE90E0089582EE90E0089580EEDF
:101C000090E0089586EE90E0089585E390E00895D1
:101C10009091EB0192FF06C0282F28712830F9F42B
:101C2000877F846093FF06C0282F28712831F1F444
:101C3000877E84612091EC0120FF06C0382F387127
:101C40003830D9F4877F816021FF06C0282F2871A2
:101C50002831D1F4877E816194FD877E0895282FF5
:101C600024712430F9F68B7F8860DCCF282F247113
:101C7000243101F78B7E8861DDCF382F317131300F
:101C800019F78E7F8860E0CF282F2171213121F74D
:101C90008E7E8861E1CF1092E7011092E8011092E8
:101CA000E9011092EA010895CF92DF92EF92FF923C
:101CB0006B017C010E945D1081110EC00E942717EC
:101CC000C61AD70AE80AF90AC092E701D092E801D9
:101CD000E092E901F092EA01FF90EF90DF90CF905F
:101CE00008950F931F930E945D10882329F00E948E
:101CF00027171F910F9108950E9427170091E70160
:101D00001091E8012091E9013091EA01600F711F03
:101D1000821F931FEECF80E0089508950E94E70A86
:101D2000811102C00E94760B0E94F20A8093B201D8
:101D30000E94FC0A9093EC018093EB010E948D0EAF
:101D40000E94F70A90E00E94A505809150019091B1
:101D500051010E94C605089508950E94AC0E089591
:101D600008950E94B00E0895E82FF0E0EA50FE4F6B
:101D700080810895089580EA8A95F1F7089500C05A
:101D800008950E94BB0E089508950E94C40E089500
:101D9000EF92FF921F93CF93DF9300D000D0CDB787
:101DA000DEB70E945D10182F6091FE01882309F4B0
:101DB00047C019821A821B821C82862F90E09E01E6
:101DC0002F5F3F4F7901B9018A509E4F0E949010BA
:101DD0008823E9F08091ED0190E044E050E0B70104
:101DE0008A509E4F0E944E1E21E02093B301892B02
:101DF000C9F410E00E94B10E812F0F900F900F9048
:101E00000F90DF91CF911F91FF90EF9008958091F7
:101E1000B301882371F384E0F70111928A95E9F701
:101E20001092B301E091ED01F0E0EA50FE4F89819C
:101E30009A81AB81BC8180839183A283B383DACF03
:101E400070E06A507E4F8091ED0190E08A509E4F85
:101E50000E9417110E94C50ECFCFF894E82FE2958B
:101E6000EF70F0E031A1282F2F7081E090E001C0E9
:101E7000880F2A95EAF7982F9095932391A392A122
:101E8000892B82A378940895CF93DF9384E90E94ED
:101E90002D0F86E60E942D0F87E90E942D0F86ECFC
:101EA0000E942D0FC4E2D1E089918F3F11F00E9472
:101EB0002D0F81E0CA32D807B9F7DF91CF9108958D
:101EC000B0E0A0E0E6E6FFE00C94211EEC01D62E87
:101ED000062F10E0C801865D9E4F7C01FC018081C9
:101EE0008F3F09F444C0F894E82FE295EF70F0E0DA
:101EF00091A18F7021E030E001C0220F8A95EAF7AE
:101F0000892F822B81A382A12095282322A3789454
:101F10000E94BF0EE4E2F1E031E0C12C21912F3F9D
:101F200059F1A22FA295AF70B0E090968C9190E0FD
:101F30002F7002C0959587952A95E2F780FD1CC009
:101F4000832FC82A330F81E0EA32F80739F7F70107
:101F500080818F3F11F00E942D0F61E0C11001C000
:101F600060E08D2D0E94C10EC00FD11FC882CDB779
:101F7000DEB7E8E00C943D1E80E0E3CF80910201E3
:101F80008091020194E0811190E09093FE0184E041
:101F9000891B8093ED010E94440F88E0E6EFF1E099
:101FA000DF01982F1D929A95E9F7EEEEF1E0DF013F
:101FB0001D928A95E9F784E00E941F100E94AD0EE1
:101FC0000895A8E0B0E0E7EEFFE00C94241E8E0137
:101FD0000F5F1F4F88E0F80111928A95E9F7F12C05
:101FE0006F2DC8010E94600FF394F4E0FF12F8CF48
:101FF00048E050E0B8018EEE91E00E944E1E21E0D4
:10200000009709F420E0892B41F088E0F801AEEE5A
:10201000B1E001900D928A95E1F76091FE0170E0C8
:102020006A507E4F44E08EEE91E00E942010182FFF
:102030000E94C80E812B2896E5E00C94401E08955E
:10204000CF92DF92EF92FF920F931F93CF936C0189
:102050007B01042F222349F081E08093B6010E9486
:102060001B179093B5018093B401C091B601C111C3
:102070000AC0C0E08C2FCF911F910F91FF90EF907D
:10208000DF90CF9008958091B4019091B5010E94A6
:102090003317059770F310E0A801B601C7010E943D
:1020A0004E1E892B41F0A801B601C7010E945B1E9C
:1020B0001092B601DFCFC0E0FBCF8091B901811152
:1020C00007C00E94041E882351F081E08093B9016B
:1020D00081E09091B901913009F080E0089582E0AB
:1020E0008093B9010E94FF1DF3CF0E945D100895F7
:1020F0000E947510809302010E945D1081110E9460
:10210000C61008950E945D10811102C00E94C9107E
:10211000089581E09091BA019A3008F080E0089526
:102120000F931F93CF93DF93EC018B018091BA0142
:102130008A30B8F4B801CE010E941411C82F811161
:1021400022C08091BA018F3FB9F40E941B1790936F
:10215000B8018093B7018C2FDF91CF911F910F9120
:1021600008958091B7019091B8010E943317843F80
:10217000914000F7C0E0EFCF8F5F8093BA018A30C3
:1021800020F7C1E0E8CF1092BA01E5CF0E94961483
:1021900008950E9499140895B0E0A0E0E2EDF0E106
:1021A0000C94221E7901C82F880FDD0B41155105B3
:1021B000A9F0FE0193E0EE0FFF1F9A95E1F7ED5FA6
:1021C000FE4F8181928185549E4F208130E04217DD
:1021D000530708F49A01A9010E945B1ECE010E94D8
:1021E0008215D82E8823D1F001151105B9F083E0AE
:1021F000CC0FDD1F8A95E1F7FE01ED5FFE4F4381B5
:1022000050E00417150708F4A801CD5FDE4F6C817C
:102210007D8165547E4FC7010E945B1E8D2DCDB719
:10222000DEB7E7E00C943E1E0E940E1208950E9455
:1022300025120895A4E0B0E0E0E2F1E10C94251E3F
:102240006091D0017091D1018091D2019091D30120
:102250000E94421711E0643671058105910518F15D
:102260000E94710E6E5F7F4F8F4F9F4F69837A83FD
:102270008B839C8310E000E030E020E044E050E0FD
:10228000BE016F5F7F4F82E00E94CC10182F882321
:1022900051F00E9427176093D0017093D101809371
:1022A000D2019093D301812F2496E4E00C94411E37
:1022B000B0E0A0E0EEE5F1E10C941F1E7C015B01B3
:1022C0006A010E94891001E010E0882311F00AE001
:1022D00010E0C1E0D0E0B501C701F6010995811118
:1022E00004C021960C171D072CF4CDB7DEB7EAE029
:1022F0000C943B1ECC9F9001CD9F300D300D1124CE
:1023000090E080E045E34A95F1F7000001968217DE
:102310009307C1F7E0CFA5E0B0E0E1E9F1E10C946B
:102320001F1E5B01E0902E01F0902F0101E010E0F4
:102330009E012B5F3F4F50E040E070E060E080E0A6
:102340000E94CC10182F882309F44BC067018FEF2F
:10235000C81AD80A6091CC017091CD018091CE014C
:102360009091CF010E944217643671058105910555
:1023700080F104E010E09E012F5F3F4F50E040E00D
:1023800070E060E081E00E94CC10F82E64E070E024
:10239000C6010E94771211E09D81981310E01F2161
:1023A00059F10E9427176093CC017093CD0180935F
:1023B000CE019093CF0189819A81AB81BC818093BA
:1023C000C8019093C901A093CA01B093CB0111E059
:1023D00013C064E070E0C6010E9477129D818913EA
:1023E000C8CFF70181819281A381B48189839A83C7
:1023F000AB83BC831111DFCF8091C8019091C901DB
:10240000A091CA01B091CB01F50180839183A28391
:10241000B383812F2596EAE00C943B1E0F931F9304
:10242000CF93DF93EC018B014BE851E10E945811EF
:10243000882331F04AE151E1B801CE010E945811E0
:10244000DF91CF911F910F9108950F931F93CF9319
:10245000DF93C0912E01D0912F01CE01019624E08F
:10246000FB01DC0101900D922A95E1F764E070E038
:102470000E94771288836D817E818F81988500917B
:10248000C4011091C5012091C6013091C7016017A8
:1024900071078207930751F06093C4017093C501DF
:1024A0008093C6019093C7010E94540EDF91CF9193
:1024B0001F910F9108950E94E7180E94DD0B0E9462
:1024C000F41808950E94F9180E94EE0B0E94131947
:1024D00008950E94B4160E94CD180E94C50B0E9458
:1024E0005B120E9462120E94D30BFBCF0895FC0185
:1024F000680F791F8FEF91E3E617F70709F4089546
:102500002191822728E030E087FF06C0880F8927C5
:1025100021503109C9F7F0CF880FFACFCF93DF935D
:10252000EC01FB018281882309F4D2C09E0130575F
:102530002332310508F0B2C00E94FC0A9093EC01EE
:102540008093EB01FE01E150F047E232F10520F407
:10255000EC54F14E0C94111E8091EB01816080933C
:10256000EB0193C08091EC0188608093EC018DC0F9
:102570008091EB018260F3CF8091EB018460EFCF1B
:102580008091EB018860EBCF8091EC018160EDCF11
:102590008091EC018260E9CF8091EB018061DFCF17
:1025A0008091EB018062DBCF8091EB018064D7CF1B
:1025B0000E9452058091EB018068D1CF8091EB01A0
:1025C0008C60CDCF8091EC018360CFCF8091EB0107
:1025D0008E7FC5CF8091EC01877FC7CF8091EB01C3
:1025E0008D7FBDCF8091EB018B7FB9CF8091EB01C7
:1025F000877FB5CF8091EC018E7FB7CF8091EC01C2
:102600008D7FB3CF8091EB018F7EA9CF8091EB01BD
:102610008F7DA5CF8091EB018F7BA1CF0E945205CA
:102620008091EB018F779BCF8091EB01837F97CFD8
:102630008091EC018C7F99CF8091EB0182FB9927EF
:1026400090F921E0922790FB82F990FB83F987CFE4
:102650008091EC01982F909591708E7F892B90FB43
:1026600081F983CF9091EB01892F8F7B96FF806456
:1026700076CF0E9452059091EB01892F97FB87F945
:1026800080586DCF81E00E94790B8091EB01909191
:10269000EC010E94010B0E94520580E0DF91CF9176
:1026A000089580E0F0CF9091EB01892F8F7E94FF09
:1026B000806155CF9091EB01892F8E7F90FF8160D3
:1026C0004ECF9091EC01892F877F93FF88604DCF8B
:1026D00081E0E4CFCF93DF93EB0186319C4711F586
:1026E0000E94F9099A81992399F08A7A91E009F474
:1026F00090E09093D401811109C089E20E94D10930
:102700000E943A0A80E0DF91CF91089585E3F6CFE9
:102710008091D401811104C089E20E94D909F0CFCF
:1027200085E3FBCF81E0EFCF0F931F93CF93DF9330
:10273000C42FD22FFC0182818823C9F04093D70196
:102740000E941B179093D6018093D50180E28C0FD5
:10275000883040F4C77081E001C0880FCA95EAF75D
:102760000E941503DF91CF911F910F910895109151
:10277000D701141332C08091D5019091D6010E94E7
:102780003317883C910548F5C0E2CD0F1D17B9F00D
:1027900080E2810F883040F4177081E001C0880F1B
:1027A0001A95EAF70E941C03C83048F481E09D2F77
:1027B000977001C0880F9A95EAF70E941503802F41
:1027C0000E940C03C83070F6D77081E001C0880FFA
:1027D000DA95EAF70E941C03C5CF80E28C0F88309F
:1027E00008F6C77081E001C0880FCA95EAF7F2CFFA
:1027F0000F93DB0188519C4787309105A0F5FC01C0
:10280000EA52F14E0C94111E06E221EE41EE6AE10D
:102810007CE7CD010E94941380E00F91089507E2B8
:1028200025EE45EE6BE17CE7F4CF06E221EE40EECB
:1028300068E17CE7EECF07E225EE44EE69E17CE754
:10284000E8CF06E221EE42EE6CE17CE7E2CF07E260
:1028500025EE46EE6DE17CE7DCCF08E221E045EEB7
:102860006EE17CE7D6CF12968C91882319F01092F6
:10287000D701D3CF81E0D1CF8EE14A9B02C08150F6
:10288000E1F74A9BFECF08955A9880E28A95F1F7C6
:102890005A9A0895FC013BE03A95F1F798E020E060
:1028A00080E031E040E14A95F1F7880F4A9B02C091
:1028B0008160232742E04A95F1F7000040E14A9504
:1028C000F1F7915079F790E19A95F1F799B132E0EB
:1028D0003A95F1F7000040E14A95F1F792FB99270C
:1028E00090F992272081920F90830895A1E0B0E0A3
:1028F000ECE7F4E10C94231E19828C017C01E60EB6
:10290000F11C0E151F0541F481E09981911180E0C1
:102910002196E6E00C943F1E0E943C14CE010196E5
:102920000E944A14F80181938F01EBCF529A5A9A70
:10293000089552985A9AEA9AE9E6F0E080818F7CED
:10294000808308956150770B91E001C0990F6A95DB
:10295000EAF720E031E0911108C0222391F05A9A61
:1029600080E28A95F1F75A980895492F482339F063
:102970005A9A232740E24A95F1F79695ECCF5A9858
:10298000F9CF5A98EDCFFF920F931F93CF93DF9318
:10299000EC018C01060F111DC017D10729F4CDB72A
:1029A000DEB7E5E00C94401EF9900E94441468E004
:1029B0008F2D0E94A214F0CF1F920F920FB60F928C
:1029C00011240F931F932F933F934F935F936F9314
:1029D0007F938F939F93AF93BF93EF93FF93CF9387
:1029E000DF930F92CDB7DEB719820E943C14CE015F
:1029F00001960E944A14082F069506950695282FE1
:102A000022952570902F9570290F922F93702695FF
:102A10002695920F982797708981982B09F05CC0B2
:102A2000043008F059C080E18A95F1F75A9A529A19
:102A300082E08A95F1F700C05A9888E0089F8001EB
:102A40001124D801AD5FBE4F1696ED91FC911797FA
:102A50003097A9F060912E0170912F0114962D915D
:102A60003C911597260F371F11968D919C911297C7
:102A7000680F791F13964C9113978C910995F80163
:102A8000ED5FFE4F6381662351F020912E0130915E
:102A90002F0184819581820F931F0E94C3140E948D
:102AA000441480E18A95F1F75A9852985A9A80E135
:102AB0008A95F1F7F801ED5FFE4F6081662351F0D2
:102AC00020912E0130912F0181819281820F931FDD
:102AD0000E9476140E943C140F90DF91CF91FF91D9
:102AE000EF91BF91AF919F918F917F916F915F9186
:102AF0004F913F912F911F910F910F900FBE0F900B
:102B00001F9018950F931F93CF93DF93EC010497B9
:102B10000CF04CC0F894529A5A9885E08A95F1F7D7
:102B200000009C2F969595708C2F8570980F892F9B
:102B300083709695969523E0CC0FDD1F2A95E1F7DB
:102B4000980F8E01092B0E94441400C068E0802F6A
:102B50000E94A21480E18A95F1F752985A9A4A9BF2
:102B60001EC087E090E04A991CC0FE01ED5FFE4F59
:102B700063816623F9F020912E0130912F01848129
:102B80009581820F931F0E947614811113C0529A6F
:102B90005A9A7894DF91CF911F910F91089500C0B8
:102BA000DECF019729F4529A5A9A789480E0F2CFB6
:102BB00000C0D9CF0E943C1480E28A95F1F75A9860
:102BC000529A80E18A95F1F7CD5FDE4F68816623E6
:102BD00051F020912E0130912F0189819A81820F2D
:102BE000931F0E94C3140E944414789481E0D2CFB2
:102BF000909331018093300108959093DA0180938E
:102C0000D90108950E945D10811103C08091D801FF
:102C10000895E091D901F091DA01309729F00190FF
:102C2000F081E02D0995089580E00895E091D901A3
:102C3000F091DA01309721F00280F381E02D0995BF
:102C400008959C012E5F3F4FAC01485F5F4F80E0CD
:102C50002417350709F40895F90191919F019923EB
:102C6000B9F38F5FF5CF662349F0FC0132960896E1
:102C70002191261729F0E817F907D1F780E0089588
:102C800081E008959C01FC0132969FEF80E0419124
:102C9000461751F09F3F19F4411101C0982F8F5FE3
:102CA0008630A9F79F3F09F40895290F311D97FD3C
:102CB0003A95F90162830895FC01329608962191B4
:102CC000261303C0DF0111971C92E817F907B9F723
:102CD00008950E94421608950E945C160895029677
:102CE00026E0FC0111922A95E9F7089508950E94C3
:102CF00076160895811106C081E08093DB010E9461
:102D00007716089582E0F9CF83E08093DB010E947B
:102D1000771608950E947A16089581E08093DB016A
:102D20000E94771608950E948D16089508950895BB
:102D30000E9497160895089508950E949616089582
:102D4000CF930E949B160E94E10F0E949C16C0E048
:102D50008C2F0E94B40E811105C0CF5FC830C1F71F
:102D6000CF91089581E0FCCF85B7806885BF85B796
:102D7000806885BF08951F921FB61F9211248F93FC
:102D80009F93AF93BF938091DC01811113C0809119
:102D9000FF0190910002A0910102B09102024196C0
:102DA000A11DB11D8093FF0190930002A093010229
:102DB000B0930202BF91AF919F918F911F901FBE60
:102DC0001F90189580910702843031F10E942D02E6
:102DD0001092DC0188E190E020E40FB6F894A89509
:102DE000809360000FBE2093600083B7817F846072
:102DF00083BF83B7816083BF7894889583B78E7FC4
:102E000083BF0FB6F894A895809160008861809385
:102E10006000109260000FBE08950E9452050E944B
:102E20003202089582E084BD93E095BD9AEF97BD8C
:102E300080936E0008952FB7F8948091FF019091D0
:102E40000002A0910102B09102022FBF08952FB796
:102E5000F8946091FF0170910002809101029091BD
:102E600002022FBF08959C014FB7F8948091FF0193
:102E700090910002A0910102B09102024FBF821B0B
:102E8000930B0895CF92DF92EF92FF922FB7F894B1
:102E9000C090FF01D0900002E0900102F090020289
:102EA0002FBFA7019601261B370B480B590BCA01F0
:102EB000B901FF90EF90DF90CF90089578941F9222
:102EC0001FB61F9211248F939F93AF93BF9380914E
:102ED000FF0190910002A0910102B09102020196BF
:102EE000A11DB11D8093FF0190930002A0930102E8
:102EF000B0930202BF91AF919F918F911F901FBE1F
:102F00001F90189587E797E7909301088093000832
:102F100088E19AE00FB6F894A895809360000FBE00
:102F200090936000FFCF88E19AE00FB6F894A895DF
:102F3000809360000FBE90936000FFCF8091E50109
:102F40000895089508959B01BA0190910702943065
:102F5000E9F48F708093E9009FEF8091E800915031
:102F600085FD06C085ED8A95F1F700009111F5CF3A
:102F70008091E80085FF0AC050E040E0C9010E944E
:102F800078198091E8008E778093E8000895CF93B8
:102F9000DF93EC0148E050E0BC0181E00E94A31700
:102FA00088E0FE01ADEDB1E001900D928A95E1F768
:102FB000DF91CF91089580910602811109C00E948E
:102FC000081B0E94651B8091E20084608093E200F0
:102FD00008951092060208950E948D16089560913A
:102FE000030281E0611101C080E00E94841608950F
:102FF0009091070281E0943009F080E06091030233
:103000000E948A16089542E061EC81E00E94841AD1
:103010009091070281E0943009F080E06091030212
:103020000E947A16089580910902833009F461C0E4
:1030300030F48130D1F1823009F49EC008958A3095
:1030400009F48AC08B3009F46FC0893009F050C090
:1030500080910802813209F04BC080910C0290915E
:103060000D02892B09F044C08091E800877F80938E
:10307000E8008091E80082FF37C09091F3008091D2
:10308000F200029731F48091F100813011F0863026
:1030900021F48091F1008093E5018091E8008B7725
:1030A0008093E8000E94B81A23C080910802813AF8
:1030B000F9F48091E800877F8093E80080910C020A
:1030C00090910D02892B61F468E08DED91E070E044
:1030D0000E94C7198091E8008B778093E8000895DB
:1030E00060E090E080E0F3CF809107028111C1CFD2
:1030F000089580910802813AD9F780910C0290914D
:103100000D02892BA9F78091E800877F8093E80062
:103110008091E80080FFFCCF809123018093F10033
:103120008091E8008E77BCCF80910802813201F750
:1031300080910C0290910D02892BD1F68091E800CC
:10314000877F8093E8000E94B81A80910A028093DA
:1031500023010E945205089580910802813241F6B0
:103160008091E800877F8093E8000E94B81A8091E0
:103170000B028093E601089580910802813A09F0DC
:10318000B7CF8091E800877F8093E8008091E800C6
:1031900080FFFCCF8091E601C1CF84B7877F84BFD9
:1031A0000FB6F894A89580916000886180936000C4
:1031B000109260000FBE80E890E00FB6F894809304
:1031C0006100909361000FBE0E94931608950E94C3
:1031D000081B0E94651BE2EEF0E080818460808322
:1031E00078940E94E41D08958BE191E00E94FD1502
:1031F000089580910702853031F48091070285306F
:1032000019F00E940D1708950E94E21680910502A0
:10321000882399F30E94A016882379F30E946219EB
:103220000E945205EACF08959A0140910E025091F2
:103230000F020E941C190895492F5527433051054C
:10324000C9F058F44130510599F142305105A9F1C6
:1032500090E080E050E040E01DC04132510509F1AE
:1032600042325105A9F780E490E042E252E0672B38
:1032700079F710C099278130910581F0009729F0E6
:10328000029731F7ECECF1E002C0EAEEF1E0849154
:1032900090E0AF01F901518340830895ECEDF1E036
:1032A000F6CF89E090E040E052E0672B89F6F2CF5C
:1032B00082E190E040E152E0EDCF82E290E04EEE1C
:1032C00051E0E8CF80E189BD82E189BD09B400FE0B
:1032D000FDCF8091D8008F7D8093D8008091E00051
:1032E00082608093E0008091E00081FDFCCF089532
:1032F000AF92BF92CF92DF92FF920F931F93CF9323
:10330000DF936C01EB018A010E94D71AF82E81111C
:1033100023C00115110539F0F80180819181C81B86
:10332000D90BC80ED91EB12CA12C2097A9F08091E1
:10333000E80085FD22C08091E8008E778093E80048
:1033400001151105A1F0F80180819181A80EB91E27
:10335000B182A08285E0F82E8F2DDF91CF911F9151
:103360000F91FF90DF90CF90BF90AF9008950E9493
:10337000D71A8823D1F2F82EEFCFF60181916F0191
:103380008093F1002197FFEFAF1ABF0ACECFFC0167
:1033900080910E0290910F0286179707A0F0611599
:1033A000710529F49091E8009E779093E80090E0F1
:1033B0006115710551F4911108C08091E80082FFF8
:1033C00034C080E00895BC01F2CF809107028823C9
:1033D000C1F18530C1F18091E80083FD30C080915A
:1033E000E80082FDEACF8091E80080FFE1CF809184
:1033F000F3002091F200382F6115710519F0283083
:10340000310558F091E02830310509F090E0209125
:10341000E8002E772093E800CBCF81918093F100D4
:10342000615071092F5F3F4FE7CF809107028823DA
:1034300041F0853041F08091E80083FFBECF81E00C
:10344000089582E0089583E00895FC0180910E02C2
:1034500090910F0286179707A0F06115710529F466
:103460008091E8008E778093E80090E06115710507
:1034700051F4911108C08091E80082FF35C080E0CE
:103480000895BC01F2CF809107028823C9F18530ED
:10349000C9F18091E80083FD31C08091E80082FD90
:1034A000EACF8091E80080FFE1CF8091F300209186
:1034B000F200382F6115710519F02830310558F0E8
:1034C00091E02830310509F090E08091E8008E7796
:1034D0008093E800CBCF84918093F10031966150C6
:1034E00071092F5F3F4FE6CF80910702882341F09B
:1034F000853041F08091E80083FFBDCF81E00895E1
:1035000082E0089583E00895982F973028F08F7017
:103510008093E90081E008959093E900242F762FAD
:1035200050E0981731F07091EC002091ED0050912F
:10353000F00021FD02C09F5FE8CF3091EB003E7F9D
:103540003093EB003091ED003D7F3093ED003091F2
:10355000EB0031603093EB007093EC002093ED00B2
:103560005093F0002091EE0027FDE5CF80E0089514
:103570008091080287FF13C08091E80082FF06C097
:103580008091E8008B778093E80004C08091070267
:103590008111F2CF0895809107028823D9F3809199
:1035A000E80080FFF8CF8091E8008E77ECCF209183
:1035B000E4003091E50095E6A9012091EC00822F0E
:1035C000817020FF06C08091E80080FF06C080E087
:1035D00008952091E80022FD1AC0809107028823F7
:1035E00089F0853089F08091EB0085FD0FC0209136
:1035F000E4003091E50042175307F9F29150E1F6EB
:1036000084E0089582E0089583E0089581E00895BC
:103610000E94771B0E947F1BE0EEF0E080818160BA
:103620008083E8EDF0E080818F77808319BCA7ED7F
:10363000B0E08C918E7F8C9380818F7E80831092FE
:10364000060208950F931F93CF93DF930E94771B79
:103650000E947F1BC8EDD0E088818F7788838881A6
:103660008068888388818F7D888319BC10920702C7
:1036700010920302109205021092040200EE10E074
:10368000F80180818B7F808388818160888342E01C
:1036900060E080E00E94841AE1EEF0E080818E7F9D
:1036A0008083E2EEF0E080818160808380818860A9
:1036B0008083F80180818E7F808388818061888308
:1036C000DF91CF911F910F910895E8EDF0E0808197
:1036D0008F7E8083E7EDF0E080818160808384E0ED
:1036E00082BF81E0809306020E94221B0895E8EDCC
:1036F000F0E080818E7F80831092E2000895109226
:10370000DA001092E10008951F920F920FB60F9207
:1037100011242F933F934F935F936F937F938F93D6
:103720009F93AF93BF93EF93FF938091E10082FF4C
:103730000BC08091E20082FF07C08091E1008B7F87
:103740008093E1000E94E31D8091DA0080FF19C0A0
:103750008091D80080FF15C08091DA008E7F809321
:10376000DA008091D90080FF96C080E189BD82E1B6
:1037700089BD09B400FEFDCF81E0809307020E945D
:10378000DB178091E10080FF19C08091E20080FF8B
:1037900015C08091E2008E7F8093E2008091E2006C
:1037A00080618093E2008091D80080628093D8008D
:1037B00019BC85E0809307020E94EF178091E10019
:1037C00084FF2BC08091E20084FF27C080E189BD87
:1037D00082E189BD89B5982F917080FFFBCF8091E0
:1037E000D8008F7D8093D8008091E1008F7E8093F8
:1037F000E1008091E2008F7E8093E2008091E20000
:1038000081608093E20080910302882309F449C01B
:1038100084E0809307020E94F8178091E10083FF03
:1038200029C08091E20083FF25C08091E100877F5D
:103830008093E10082E0809307021092030280915E
:10384000E1008E7F8093E1008091E2008E7F809383
:10385000E2008091E20080618093E20042E060E05B
:1038600080E00E94841A8091F00088608093F000CC
:103870000E94EC17FF91EF91BF91AF919F918F91B3
:103880007F916F915F914F913F912F910F900FBE5C
:103890000F901F90189519BC109207020E94E9170B
:1038A00070CF8091E30087FD93E090930702B3CF40
:1038B0001F920F920FB60F9211242F933F934F93A5
:1038C0005F936F937F938F939F93AF93BF93CF93A8
:1038D000DF93EF93FF93D091E900DF708091EC00CC
:1038E000C82FC17080FDC0E81092E9008091F000FF
:1038F000877F8093F00078940E949C1C1092E900CE
:103900008091F00088608093F000CD2BCF70C09341
:10391000E900FF91EF91DF91CF91BF91AF919F911E
:103920008F917F916F915F914F913F912F910F9068
:103930000FBE0F901F901895AAE2B0E0E2EAFCE1FA
:103940000C94261E88E092E02091F100FC01219366
:10395000CF01F2E080319F07B9F70E9413188091E0
:10396000E80083FF1EC180910802909109029A30FD
:1039700008F017C1E92FF0E0E352F14E0C94111E4C
:10398000803899F0823809F00CC180910C028F7058
:10399000873008F006C18093E9008091EB0085FB39
:1039A000882780F91092E90006C080910402909166
:1039B0000502911182609091E800977F9093E80052
:1039C0008093F1001092F1008091E8008E77E5C0BD
:1039D000882309F4D3C0823009F0E3C080910A0241
:1039E0008111D6C080910C028F702FEF280F2630E6
:1039F00008F0D7C08093E9002091EB0020FFC8C0F9
:103A0000933031F48091EB0080628093EB00C0C072
:103A10009091EB0090619093EB0021E030E001C0C9
:103A2000220F8A95EAF72093EA001092EA0080912B
:103A3000EB008860EACF8111B4C010910A021F77B1
:103A40008091E3008078812B8093E3008091E800EF
:103A5000877F8093E8000E94B81A8091E80080FF79
:103A6000FCCF8091E30080688093E30082E0111135
:103A700083E08093070295C08058823008F091C09F
:103A800080910A0290910B028C3D23E09207A1F5F0
:103A900083E08A838AE289834FB7F894DE01139624
:103AA00020E03EE051E2E32FF0E050935700E49134
:103AB00020FF03C0E295EF703F5FEF708E2F90E024
:103AC000EA30C0F0C7968D939D932F5F243159F74C
:103AD0004FBF8091E800877F8093E8006AE270E042
:103AE000CE0101960E94C7198091E8008B778093E0
:103AF000E80057C0C096E7CF60910C0270910D02AC
:103B0000AE014F5F5F4F0E941419BC01892B09F46D
:103B100048C09091E800977F9093E80089819A814E
:103B20000E94251AE1CF8038E1F58091E800877F77
:103B30008093E800809103028093F10045CF8111CA
:103B400030C090910A02923060F58091E800877F42
:103B50008093E800909303020E94B81A80910302B8
:103B6000882311F084E005C08091E30087FDFACF3F
:103B700081E0809307020E94031813C080910A021B
:103B8000813079F481E0933009F080E08093050280
:103B90001092E9008091E800877F8093E8000E94FE
:103BA000B81A8091E80083FF0AC08091E800877FFF
:103BB0008093E8008091EB0080628093EB00AA96EE
:103BC000E3E00C94421E0895CF938091070288236E
:103BD000A1F0C091E900CF709091EC00892F817025
:103BE00090FD80E8C82B1092E9008091E80083FDE9
:103BF0000E949C1CCF70C093E900CF9108950E9451
:103C0000081B109207020895E8EDF0E080818061C2
:103C100080838AE18A95F1F700C08091D900817094
:103C20000895EE0FFF1F0590F491E02D09942F9257
:103C30003F924F925F926F927F928F929F92AF923C
:103C4000BF92CF92DF92EF92FF920F931F93CF9389
:103C5000DF93CDB7DEB7CA1BDB0B0FB6F894DEBF20
:103C60000FBECDBF09942A88398848885F846E8446
:103C70007D848C849B84AA84B984C884DF80EE8090
:103C8000FD800C811B81AA81B981CE0FD11D0FB699
:103C9000F894DEBF0FBECDBFED010895FB01DC013E
:103CA00004C08D910190801921F441505040C8F713
:103CB000881B990B0895FB01DC0102C001900D9255
:103CC00041505040D8F70895F999FECF92BD81BD7B
:103CD000F89A992780B50895A8E1B0E042E050E055
:103CE0000C94981E262FF999FECF92BD81BDF89AAB
:103CF000019700B4021639F01FBA20BD0FB6F89430
:103D0000FA9AF99A0FBE08950396272F0E94731E00
:103D10000E94721E252F0E94731E242F0C94731E66
:103D20000196272F0E94731E0C94721EDC01CB019A
:103D3000FC01F999FECF06C0F2BDE1BDF89A3196BB
:103D400000B40D9241505040B8F70895F894FFCF59
:103D500062036203B303B3039103910391039103DD
:103D600026049704A604A604E6125A13EE12B8120B
:103D7000BC12F212C012F6120213CC125313D0125C
:103D80000613D4120A133213D8120E133913DE128B
:103D900014131C13C412FA12C812FE12E2121813E2
:103DA000281342135113B212EA12611315141B1493
:103DB00004140F14211427142D14C01CE81CD11D49
:0E3DC000E81CD11D1B1D3C1DD11D931D9F1D18
:103DCE009601010000000100000000000000040147
:103DDE0000000004050000000000009E17C717A297
:103DEE0017A11701F4F5F6F73133946697C6BB01A8
:00000001FF
