:100000000C9478010C9495010C9495010C940319AF
:100010000C9495010C9495010C9495010C94950108
:100020000C9495010C9495010C941F200C94F120D4
:100030000C942B1B0C9495010C9495010C94950138
:100040000C9495010C9495010C9495010C949501D8
:100050000C9495010C94D01B0C9495010C94950173
:100060000C9495010C9495010C9495010C949501B8
:100070000C9495010C9495010C9495010C949501A8
:100080000C9495010C9495010C9495010C94950198
:100090000C9495010C9495010C9495010C94950188
:1000A0000C9495010C9495010C9495012204220462
:1000B0004E044E04B005B704B005B005C2043A05BD
:1000C0004C054C0559218021782280217822CC21B1
:1000D000EF217822462255222B0014001A00080036
:1000E00015001700E00004001600070009000A00D0
:1000F000E2001D001B0006001900050000000000C2
:10010000916801512C0029622A00130012000C0092
:1001100018001C00E50033020F000E000D000B005C
:10012000E400380037003600100011000000000025
:1001300090780251280029722B001E021F02200213
:1001400021022202E000340231023502F100F20005
:10015000E2003400310035002E022E0000000000C5
:10016000916801002C0029622A002702260225023C
:1001700024022302E50033004F00520051005000DA
:10018000E4003802370236022D002D020000000084
:1001900090780351280029623A001E001F002000B9
:1001A000210022003B0000002F0030002F0230020F
:1001B0003C003D003E003F004000410000000000C8
:1001C000916803512C0029622A002700260025008F
:1001D00024002300E50000004F00520051005000B1
:1001E0004500440043004200F200F100000000001E
:1001F00090780100280029620E0363006C00610002
:1002000077003400340000000C03790066007500AC
:100210006B00750000000403090409023B000201A1
:1002200000A0FA09040000010301010009211101E5
:1002300000012240000705810308000109040100B4
:1002400001030000000921110100012249000705F6
:1002500082032000011201000200000008EDFE6090
:100260003001000102000105010902A10185020916
:1002700001A1000509190129081500250195087536
:100280000181020501093009311581257F9502752B
:1002900008810609381581257F95017508810605B5
:1002A0000C0A38021581257F950175088106C0C0AA
:1002B00005010906A101050719E029E71500250137
:1002C00095087501810295017508810105071900DE
:1002D00029FF150026FF00950675088100050819FD
:1002E000012905950575019102950175039101C0DC
:1002F00011241FBECFEFDAE0DEBFCDBF11E0A0E0DA
:10030000B1E0EEEEF6E402C005900D92AC33B10719
:10031000D9F722E0ACE3B1E001C01D92AF32B207E1
:10032000E1F70E944F130C9475230C94000081E0B8
:10033000089581E008950E949901089508950E940A
:100340009E010895A5E0B0E0E8EAF1E00C94E12216
:1003500049835A833091430189819A81311114C0B4
:10036000662359F0222349F00E945907182F682F5D
:1003700089819A810E94350703C00E944707182F80
:1003800069817A81812F04C00E94590769817A812D
:100390000E94330E2596E3E00C94FD22FC01262FEB
:1003A000408151816281738184810E94A2010895FC
:1003B00081E00895CF93DF93EC0160E00E94CE01CD
:1003C000BE010E949F01DF91CF9108950E94AB0F63
:1003D00008950E94A50F089508950E94AE030E94FB
:1003E000EC012FEF84E39CE0215080409040E1F746
:1003F00000C0000008950E94ED010E94F61B0895C0
:100400000E94ED010E94071C08950F931F93CF9344
:10041000DF938C0161E00E94CE01EC01B8010E94E3
:100420009B01882309F440C0B801CE010E94161830
:100430008823D1F1B801CE010E94FF158823A1F1D4
:10044000B801CE010E947D17882371F1F8018281E5
:10045000882331F1CB358DE5D807E9F050F4C1158B
:10046000FCE5DF0779F0CF3DDC45D1F40E947C0C40
:100470000CC0CD35EDE5DE0759F080F0C83ADD451A
:1004800021F00EC00E94FB010FC00E9400020CC0B0
:100490000E94BE0B05C00E94C80B02C00E94CC0B7C
:1004A000C8010E94970101C080E0DF91CF911F91A8
:1004B0000F9108950E94041B0E94770208950E94E4
:1004C0007B020E940D1B089508950E946402089506
:1004D00081E008950E94680208950895CF93C82F7F
:1004E0000E9465028C2F0E946A02CF91089580E0DD
:1004F0000E946E0208950E942E1A0E946E020895B4
:10050000CF930E942E1AC82F80913E01C81779F010
:10051000C0933E010E94991B60933F01709340017C
:1005200080934101909342018C2F0E946E02CF91E3
:100530000895ABE0B0E0EFE9F2E00C94E222942FF2
:100540004F83252F588769877A878B874A855B85F4
:10055000452B31F02F3F31F481E09F3F19F403C068
:1005600081E001C080E080FD09C08091440190914C
:10057000450101969093450180934401898581113D
:100580000E94060B9E012F5F3F4F86E0F9011192FA
:100590008A95E9F785E0FE013796D90101900D9221
:1005A0008A95E1F789819A814C815D81452B31F0F3
:1005B0009F3F31F491E08F3F19F403C091E001C0F7
:1005C00090E090FF09C049815A816B817C818D81C7
:1005D0009E810E94320A05C0C9010E94D801811182
:1005E000F2CF2B96E2E00C94FE22FC0180819181F7
:1005F0000E948B070895CF938823A9F1C82F8CEF11
:100600008C0F813AD0F46C2F809100019091010100
:100610000E94931A882349F06C2F809100019091D9
:1006200001010E94CC1A0E942A0B6C2F80910001BC
:10063000909101010E94C91A0CC080E28C0F883091
:1006400058F4C77081E001C0880FCA95EAF70E948C
:10065000E90A0E942A0B07C0CD3E28F08C2F0E9489
:10066000D4130E94A614CF9108958823A1F19CEF82
:10067000980F913A40F4682F809100019091010108
:100680000E94CC1A0DC090E2980F983060F48770E9
:1006900091E001C0990F8A95EAF7892F0E94EF0A2D
:1006A0000E942A0B08959BE5980F933028F480E070
:1006B00090E00E945B1A089598E5980F973128F40E
:1006C00080E090E00E94711A08958D3E20F00E9413
:1006D0002F140E94A61408951F93CF93DF93182F11
:1006E000EB010E94FB02209741F08FE99FE0019708
:1006F000F1F700C000002197F6CF812F0E9435034B
:10070000DF91CF911F910895893319F060E070E077
:1007100002C060E570E00E946C030895882321F018
:100720000E94E90A0E942A0B0895882321F00E9462
:10073000EF0A0E942A0B08950E94060B0E942A0BC2
:100740000E94C5140E94A614089580910001909102
:1007500001010E94CF1A0E949C0308950E94F60A8C
:100760000E94A503089592959F70963079F010F439
:10077000925001C09A50923068F4803F69F018F4AA
:10078000883E40F409C0843F29F406C0883E20F02A
:10079000813F11F080E0089581E00895FC0190818F
:1007A000818123813481232B31F08F3F31F481E02B
:1007B0009F3F19F403C081E001C080E080FD07C0C5
:1007C000808191810E948B070E94B303089580E08D
:1007D0000895A0E0B0E0EFEEF3E00C94DB226C01B2
:1007E000C62FF72EFC01D281058102950F700E9461
:1007F000DF0A8823B9F0DD23A9F08F2D807F8034B4
:1008000021F080E28C0F883068F080910B0282FF2B
:1008100009C082E00E948C0B0E94DF0A91E0E82E62
:10082000E92601C0E12CBF2CB2948FE0B8228B2DB9
:1008300090E08C30910508F093C1FC01EA5AFF4F1B
:100840000C94CC221F2D1F708F2D807F11F01295DC
:10085000107FDD2399F0112309F46EC180E28C0F23
:10086000883010F0C11104C0812F0E94E90A03C032
:10087000812F0E94F90A0E942A0B5EC18C2F0E94D0
:100880003503112309F46CC180E28C0F883040F1EC
:10089000CC2331F1812F0E94FF0A25C01F2D1F702C
:1008A0008F2D807F803211F01295107FCC2319F0AC
:1008B000C130A1F13DC080910B0282FD17C0DD2344
:1008C00049F0112329F0812F0E94E90A0E942A0B86
:1008D00080E033C180E00E943503112309F440C158
:1008E000812F0E94EF0A0E942A0B3AC1DD2371F08A
:1008F000002341F0013031F40E94090B812B0E944A
:10090000130B2EC10E94090B812B1DC0002319F06F
:10091000013009F425C10E94200B25C0DD2321F000
:10092000063008F01DC10EC0053008F019C11BC00B
:10093000DD2361F0002331F0F601858180FFFCC0EA
:100940008F708583812F0E948E030AC1002359F086
:10095000C93309F002C1FFEF27EE83E0F1502040D8
:100960008040E1F7F8C0812F0E949503F9C08C2FD9
:10097000DD2319F00E94D41302C00E942F140E949C
:10098000A614F6C08F2D8370B9F5D111EDC04C2F90
:10099000429546954770440F440F8C2F8F7090E01E
:1009A0009C01042E02C0220F331F0A94E2F7C4FFF9
:1009B0000AC08FE090E002C0880F991F4A95E2F7C5
:1009C0008095909502C080E090E04F2D4695469529
:1009D0004370822B932B423049F058F4413019F088
:1009E0000E946606C1C00E945D06BEC00E946F06DE
:1009F000BBC00E945A06B8C0DD2319F08F2D81704C
:100A000001C08695882309F4AFC04C2F42954695C6
:100A10004770440F440F8C2F8F7090E09C01042E80
:100A200002C0220F331F0A94E2F7C4FF0AC08FE00E
:100A300090E002C0880F991F4A95E2F78095909543
:100A400002C080E090E04F2D469546954370822B82
:100A5000932B423049F058F4413019F00E94D006EF
:100A600083C00E94C70680C00E94D9067DC00E9434
:100A70007B067AC01F2D1F70DD2339F0812F0E9465
:100A800095068C2F0E948E036FC08C2F0E949503B9
:100A9000812F0E94A50668C0C23F21F128F4C03F03
:100AA00041F0C13FC1F044C0C33F19F1C43F79F0E8
:100AB0003FC0DD2341F0053008F052C08F2D8F710B
:100AC0000E94B7064DC0063008F04AC0F7CF8091AB
:100AD0000B0282FD18C0DD2339F08F2D8F710E942B
:100AE00095063EC0DD23C9F38F2D8F710E94A506A8
:100AF00037C0DD2329F08F2D8F710E94890630C009
:100B00000E9484062DC0DD2351F01F2D1F71812FFF
:100B10000E94950663E0812F0E946E0B21C081E048
:100B20000E948C0B0230E0F082E00E948C0B18C017
:100B3000DD2331F0002389F28C2F0E94FB0210C0CC
:100B4000002391F2C93349F49FEFE7EEF3E09150AF
:100B5000E040F040E1F700C000008C2F0E94350318
:100B600088EF8B0D843020F40E942E1A0E946E02B2
:100B70008C2F9F2D0E94B303811105C01092450157
:100B80001092440111C0DD2319F00111F7CF0CC000
:100B90000111F4CF8091440190914501029771F7C2
:100BA0008C2F0E948403EACFEE2089F00E94DB0A9A
:100BB00080FD0DC0F60112820E94D50A0E949506A2
:100BC000C6010E9404060E94D50A0E94A506CDB760
:100BD000DEB7E9E00C94F7220F931F93CF93DF93D6
:100BE000EC01688179818A810E9496078C010E94BC
:100BF000E2060E944906B801CE010E94E903DF9196
:100C0000CF911F910F910895CF93DF93EC019881BD
:100C100089812B813C81232B31F08F3F31F481E09E
:100C20009F3F19F403C081E001C080E080FD1AC03D
:100C3000CE010E94050281110FC00E94DF0A8823A5
:100C400089F08A81882371F080910B0282FF0AC0AB
:100C500082E00E948C0B06C0CE010E94EC05CE0102
:100C60000E94DA01DF91CF910895A5E0B0E0EBE3B7
:100C7000F6E00C94E2222596E2E00C94FE22A6E037
:100C8000B0E0E5E4F6E00C94E2222696E2E00C9473
:100C9000FE22089508950E944A0608950E944B0678
:100CA00008950E944E0690936101809360010E9416
:100CB0009C0308950E94510608952091600130918F
:100CC0006101822B932B0E945106089520916001AF
:100CD00030916101822393230E945106089520914F
:100CE000600130916101822793270E945106089587
:100CF0000E944A0608950E94780690935F018093AF
:100D00005E010E949C03089580E090E00E947B06B3
:100D1000089521E030E0A90102C0440F551F8A95D3
:100D2000E2F7CA010E947B06089521E030E002C08C
:100D3000220F331F8A95E2F780915E0190915F0147
:100D4000822B932B0E947B06089521E030E002C0A5
:100D5000220F331F8A95E2F72095309580915E012E
:100D600090915F01822393230E947B06089521E0E6
:100D700030E002C0220F331F8A95E2F780915E01B6
:100D800090915F01822793270E947B06089520910E
:100D90005E0130915F01822B932B0E947B060895A8
:100DA00020915E0130915F01822393230E947B0694
:100DB000089520915E0130915F01822793270E9460
:100DC0007B0608950895962F9770A1E001C0AA0FA1
:100DD0009A95EAF793E0769567959A95E1F7660F0D
:100DE000771F660F771FFA01E60FF71F40E050E00C
:100DF000682F70E090819B01042E02C036952795E4
:100E00000A94E2F72170219529272A232927219383
:100E10004F5F5F4F4430510569F70895FB01782F0C
:100E2000777023E0969587952A95E1F7880F991FAB
:100E3000880F991FE80FF91F40E050E080E02191F2
:100E400030E0072E02C0369527950A94E2F721700C
:100E50003327042E01C0220F0A94EAF7822B4F5F3A
:100E60005F4F4430510559F70895282F983070F49A
:100E7000863060F4862F622F70E026E0929F600D2E
:100E8000711D112446E451E00E94E3060895983054
:100E900070F4863060F4292F90E066E471E036E06B
:100EA000239F800D911D11240E940E07089580E05C
:100EB0000895A0E0B0E0EFE5F7E00C94DB227C01C0
:100EC00000915E0110915F0180916001909161013C
:100ED000082B192BCFE0D0E0CC24C394D12CC60131
:100EE0000C2E02C0880F991F0A94E2F780239123E9
:100EF000892B21F4219798F7B12C07C0BC2EB7019C
:100F00008C2F0E944C0E0197A9F38B2DCDB7DEB725
:100F1000E9E00C94F722CF93DF93EC010E9459078C
:100F2000BE010E944C0EDF91CF9108951F93CF9385
:100F3000DF93EB0190914301992321F0CB010E94B3
:100F40008B0713C0882349F0CB010E945907182F43
:100F5000682FCE010E94350704C0CB010E944707CD
:100F6000182FBE01812F0E944C0EDF91CF911F914F
:100F700008951F93CF93DF93C091620116E0809193
:100F80006301C81799F0D0E01C9FF0011D9FF00D80
:100F90001124EC59FE4F408151816281738184811B
:100FA00095810E943F062196C770E9CFDF91CF91CE
:100FB0001F9108954091940150919501609196017F
:100FC0007091970180919801909199010E943F063C
:100FD0000895209162019091630156E02917A9F0CC
:100FE00030E0529FF001539FF00D1124EC59FE4F59
:100FF0007181761306C07081781303C072817413F7
:1010000006C02F5F3F4F2770E9CF80E0089581E051
:1010100008950F931F93CF93DF9380919901829549
:101020008F7009F05AC080919601882309F455C049
:10103000809162011091630160919401709195011A
:10104000C0919701D091980191E06F3F09F090E035
:10105000292F06E0811709F440C0209721F07F3F37
:1010600021F030E003C031E001C0322F90E030FDCC
:1010700031C0089FF001099FF00D1124DF01AC5928
:10108000BE4F11963C911197371324C03C913613F3
:1010900021C012963C91129731111CC013964D91AC
:1010A0005C9114974C1B5D0B4233510598F4809171
:1010B00099018F70806180939901E759FE4F80817B
:1010C0008F708061808384E991E00E9404060E9411
:1010D000B90703C001968770BDCFDF91CF911F91F3
:1010E0000F910895A1E1B0E0E8E7F8E00C94D82270
:1010F0008C0185E0F801DE011D9601900D928A9524
:10110000E1F7D8011296EC9090919401209195010D
:1011100040919701509198014115510531F02F3FB1
:1011200031F481E09F3F19F403C081E001C080E009
:1011300080FD79C1F801C080D1808380948084E9EA
:10114000A82E81E0B82EF0909601B401641B750BB7
:10115000FF2009F412C180919901382F307F62334A
:10116000710508F0CCC031118BC0D21214C0C91265
:1011700012C0FE2CE1100FC08F7080618093990126
:101180000E94DA07C5010E94040680919901D801E6
:1011900015968C9362C18114910439F0BFEFDB1274
:1011A00006C081E0CB1203C003C081E001C080E033
:1011B00080FD03C081E08E2502C080E090E080FFCA
:1011C00010C04E2D6D2D8C2D0E94E907882349F00B
:1011D00084E991E00E940406E4E9F1E086E0DF01A1
:1011E0009EC08114910439F0BFEFDB1206C081E08C
:1011F000CB1203C003C081E001C080E080FD03C0CA
:1012000081E08E2502C080E090E0E82FE170BE2EE4
:1012100080FF2CC04E2D6D2D8C2D0E94E907F82EDD
:10122000811124C0CD86DE868D859E850E948B0728
:10123000292F22952F70223018F0243090F405C009
:101240009F7059F0811109C008C19F7031F0D80119
:1012500015969C91907F09F400C1805E883008F457
:10126000FCC0C8010E940406FB2CF7C0FE2CEE2037
:1012700009F4F3C08091990181608093990154C071
:10128000D21206C0C91204C0E11002C0F80199C010
:10129000C8010E94CE03882361F1EE2051F1209114
:1012A0009901822F82958F7090E0029774F080915F
:1012B00094019091950198878F8319869B868A86E1
:1012C0002C87CE0107960E94040686E0F801A4E967
:1012D000B1E001900D928A95E1F70E9409080E9401
:1012E000DA070AC0D21611F1C8010E94CE0381119B
:1012F0002CC0C8010E940406FF24F394AEC0311133
:10130000F1CF782D998A888AA6016E2D89890E944D
:10131000350684E991E00E94040686E0D5011D921D
:101320008A95E9F70E94DA07F12C97C0C912DCCF41
:10133000E110DACFF8018583C8010E94040686E037
:10134000D5011D928A95E9F788C0EE2091F220918F
:101350009901822F82958F7090E002970CF4B5CF9F
:1013600080919401909195019A8389831B829D823B
:101370008C822E83CE010196A6CF6233710508F0D0
:1013800044C0FE2CEE2009F4B4CFD21230C0C912F2
:101390002EC02091990120FD21C0822F82958F704F
:1013A000482F50E041155105C9F0F80125834F3011
:1013B000510541F08F5F982F9295907F822F8F700B
:1013C000892B8583C8010E94040686E0F801A4E900
:1013D000B1E001900D928A95E1F73DC086E0F801F9
:1013E000A4E9B1E001900D928A95E1F736C0C801F9
:1013F0000E94CE03811169CF809199018160809311
:101400009901C8010E94040628C0782D998A888A0B
:10141000A6016E2D89890E94350686E0D5011D92B0
:101420008A95E9F718C0EE2009F463CFC8010E943D
:10143000CE03F82E882309F45CCF86E0F801A4E9F6
:10144000B1E001900D928A95E1F784E991E00E9464
:10145000F5020E9409080E94DA078F2D6196ECE0E0
:101460000C94F422ACE0B0E0E8E3FAE00C94E12262
:101470004F83588769877A878B879C87CE01079629
:101480000E9472088823D1F09F8188852A853B8538
:10149000232B31F08F3F31F481E09F3F19F403C0DB
:1014A00081E001C080E080FD47C04F81588569859B
:1014B0007A858B859C850E943F063EC086E0FE01B2
:1014C0003796DE01119601900D928A95E1F7FF8122
:1014D000E8856A857B856115710531F0EF3F31F450
:1014E00081E0FF3F19F403C081E001C080E080FD8E
:1014F00023C02091630130E0C901019687709927CC
:101500004091620150E084179507F1F1F983EA8375
:101510007D836C8396E0929FD001939FB00D112440
:10152000AC59BE4FFE01319601900D929A95E1F7AC
:10153000809363010E94B90716E080916201909147
:101540006301891771F1189FC00111248C599E4FB6
:101550000E947208882329F1E09162011E9FF00128
:101560001124EC59FE4F4081518162817381848145
:1015700095810E943F068091620190E001968770FC
:10158000992780936201D9CF0E94AE031092630124
:1015900010926201E4E9F1E086E0DF011D928A9594
:1015A000E9F72C96E3E00C94FD228091A201859549
:1015B0008595859508958091A201877008959091F1
:1015C000A201977081E009F480E008958091AD0157
:1015D00008959091AD01892B8093AD010895809578
:1015E0009091AD0189238093AD0108951092AD01D2
:1015F00008959091AC01892B8093AC01089580955A
:101600009091AC0189238093AC0108951092AC01B4
:1016100008958091A301089508950E940C0B0895E8
:101620000E940D0B089590910B0292FF08C09091BB
:10163000A301981721F08093A3010E94100B089535
:101640008091A301882329F01092A30180E00E94D9
:10165000100B0895CF93DF93E0910001F091010109
:101660008091AD018083E0910001F09101019081B2
:101670008091AC01892B80838091A301882381F024
:10168000E0910001F09101019081892B808380918C
:101690000001909101010E94871A81110E94200B84
:1016A000C0910001D091010148E050E06AE971E089
:1016B000CE010E941D23892B59F088E0FE01AAE982
:1016C000B1E001900D928A95E1F7CE010E94421A95
:1016D000DF91CF9108950E940C0B089590910B0219
:1016E00092FF11C098E0899F90011124262B20932E
:1016F000A2010E9495068091A20185958595859508
:101700000E946B0B08950E94950608951092A20105
:1017100080E00E946B0B08952091A20180958223A6
:101720008093A201982F977099F430E0482F082EEB
:10173000000C550B2417350759F090910B0292FFBE
:1017400007C08595859585950E94A5060E94860B04
:10175000089590910B0292FB222720F9281769F037
:1017600080FB92F990930B0280910A0290910B02F8
:101770000E94F60B82E00E948C0B089580910B0270
:1017800082FB882780F991E089270E94A90B0895A0
:1017900081E00E94A90B089580E00E94A90B0895A2
:1017A00080E090E00E943B2321E0883E9E4F09F0BC
:1017B00020E0822F089582E090E00E943323089574
:1017C00083E090E00E9433230895CF9384E090E07B
:1017D0000E943323C82F82E290E00E9433232C2FF3
:1017E00030E0A901582BCA01CF910895CF93C92F9A
:1017F000682F84E090E00E9441236C2F82E290E009
:101800000E944123CF910895AB01BC018FE090E08D
:101810000E9453230895AB01BC0183E190E00E9434
:101820005323089560E070E0CB010E940B0C0895F3
:1018300060E070E0CB010E94040C0E94120C08953D
:1018400068EE7EEF80E090E00E945F2360E082E03F
:1018500090E00E94412360E083E090E00E944123F9
:10186000109261011092600160E084E090E00E94BB
:10187000412364E082E290E00E94412360E085E041
:1018800090E00E94412360E086E090E00E944123C6
:101890006FEF87E090E00E94412340E050E0BA0102
:1018A00088E090E00E94532360E08DE090E00E9489
:1018B000412340E050E0BA0188E190E00E945323C8
:1018C00060E087E190E00E94412340E050E0BA01EF
:1018D0008CE190E00E94532360E070E080E290E0B1
:1018E0000E945F2340E050E0BA0188E190E00E944E
:1018F00053230E94180C08950E94200C0895682F0D
:101900008EE090E00E94412308950E94991B60930D
:10191000BC017093BD018093BE019093BF016093A1
:10192000B8017093B9018093BA019093BB010895F7
:101930000E943E11089508950E949B0C08950E94F4
:101940009B0C08950E949F0C08950E949B0C089583
:101950000E94A50C08950E949B0C089580E79FE0CB
:101960000E94241A0E94AB0C0E94A80C08950E94A9
:101970009C0C0E949B0C08950E94730F0E946D02A4
:1019800008950E94841B0E94300F0E9459110E94EA
:10199000A1100E94BC0C0E94E7150E9463110E94D6
:1019A000A20C0895AAE0B0E0E8EDFCE00C94DA2285
:1019B0000E94C61080EBE82E81E0F82E670100E05F
:1019C000F60111916F01802F0E94910F81270F5F07
:1019D000083019F08823A1F322C0811120C00E9491
:1019E0008D1B8C018091AE019091AF0108171907F2
:1019F00009F450C08FEF89838A831B820E948D1B5C
:101A00008160782F9D838C8349815A816B818D8180
:101A10000E9499021093AF010093AE013BC08091E8
:101A2000C00181FD0E94970F0E94980CA82E10E023
:101A3000812F0E94910FB82EF701C080C82611F1A6
:101A400000E0DD24D3948C2D8D21B1F0AA20A1F0EB
:101A50000E831F8391E08B2D8D2109F490E09887F0
:101A60000E948D1B8160782F9A8789874E815F81C4
:101A700068858A850E9499020F5FDD0C063019F790
:101A8000F701B0821F5FFFEFEF1AFF0A183081F6EF
:101A90000E94850C0E943E110E94E7140E94800261
:101AA0002A96EAE00C94F622CF93DF930E94510E1F
:101AB000EC01811522E5920780F5811531E5930748
:101AC00008F092C08F3F910509F0B8F48D3E910562
:101AD00008F06FC0853A910550F48430910508F004
:101AE000BEC0019709F0B8C081E090E0B9C0805E47
:101AF0009109089708F4B3C0AFC0811540E5940779
:101B000008F05DC0C11580E4D80708F054C0C115C5
:101B100020E2D20708F4A3C09FC0811536E59307E1
:101B200028F5811545E5940708F07BC0C11584E5CB
:101B3000D80708F070C0AE01437055272C2F2695AA
:101B40002695C115D34508F055C081E090E002C04C
:101B5000880F991F4A95E2F740E2249F90011124D3
:101B6000EC01C22BD32BCE019C687AC081154AE5CB
:101B7000940780F4C11589E5D80708F05BC0C1154A
:101B800028E5D20708F468C0DC2FCC27CE01806F8F
:101B9000906A66C090568115904208F05DC08D2F06
:101BA0008F710E94ED0EDD27D0628F719E01382B60
:101BB00051C0906555C0DF70CE01906A51C08370EE
:101BC000992721E030E002C0220F331F8A95E2F707
:101BD0009C2F9695969540E2949FE0011124C22B8C
:101BE000D32BCE019D683CC0D82FCC27CE01816F6E
:101BF000906A36C081E090E002C0880F991F4A9534
:101C0000E2F740E2249F90011124EC01C22BD32B78
:101C1000CE019A6825C0DC2FCC27CE01846F906A54
:101C20001FC00E94ED0E8F7190E0D82FCC27CE01FF
:101C3000906216C08C2F8F700E94ED0E94E0D695A6
:101C4000C7959A95E1F7CF70D0E0DC2FCC27D0690B
:101C50009E01282BC90104C080E090E001C0CE01A4
:101C6000DF91CF9108957830A0F4663090F490E33E
:101C7000899FF001112486E0789FE00DF11D112469
:101C8000E60FF11DEE0FFF1FE852FF4F8591949173
:101C9000089580E090E008950E94330E0E94540D54
:101CA00008958238910569F1B0F48133910509F402
:101CB00075C048F48932910509F467C08A329105EC
:101CC00009F471C008958533910509F459C0893329
:101CD0009105B9F00895833E910589F138F4803E6D
:101CE0009105D1F0823E910529F10895863E910536
:101CF000C9F1873E9105D9F1843E910509F06CC088
:101D000027C020910A0220FD57C021FD55C0209117
:101D10000B0223FD5BC0089580910A0280FD48C03C
:101D200080910B0280FF48C080910A0284FD46C06A
:101D300083EE51C080910A0282FF3CC0F5CF8091B2
:101D40000A0282FD37C080910B0280FD35C0ECCFC6
:101D500080910B0281FF36C080910A0284FD2EC063
:101D600087EE39C080910A0283FF2AC0F5CF8091A7
:101D70000A0283FD25C080910B0281FD23C0ECCFB8
:101D800080910A0285FD22C01FC080910A0285FD54
:101D90001BC080910B0283FF19C00AC080910A0208
:101DA00086FD16C017C080910A0286FD13C010C0C0
:101DB00089E311C082EE0FC080EE0DC080E00BC041
:101DC00086EE09C084EE07C085E305C089E203C042
:101DD0008AE201C081E390E0089590910A0292FFA7
:101DE0000DC0282F2871283019F4877F846006C021
:101DF000282F2471243011F48B7F886093FF0DC04D
:101E0000282F2871283119F4877E846106C0282F75
:101E10002471243111F48B7E886120910B0220FF04
:101E20000DC0382F3871383019F4877F816006C0B3
:101E3000382F3171313011F48E7F886021FF0DC051
:101E4000282F2871283119F4877E816106C0282F38
:101E50002171213111F48E7E886194FD877E089571
:101E600010920602109207021092080210920902C4
:101E70000895CF92DF92EF92FF926B017C010E9456
:101E80003E1181110EC00E94991BC61AD70AE80A9A
:101E9000F90AC0920602D0920702E0920802F0927C
:101EA0000902FF90EF90DF90CF9008950F931F935A
:101EB0000E943E11882319F00E94991B0EC00E94B7
:101EC000991B00910602109107022091080230919F
:101ED0000902600F711F821F931F1F910F910895B8
:101EE00080E0089508950E94D00B811102C00E94E5
:101EF0007C0C0E94DB0B8093C0010E94E50B909349
:101F00000B0280930A020E94720F0E94E00B90E085
:101F10000E945A0680915E0190915F010E947806AE
:101F20000895E82FF0E0EB5EFD4F8081089508955D
:101F300080EA8A95F1F7089500C008950E94980FED
:101F4000089508950E94A10F08950E94A20F089578
:101F50000E94A10F08950E94A80F08950E94A10F4A
:101F60000895A4E0B0E0E7EBFFE00C94E0220E94CB
:101F70003E1160911D028823E9F119821A821B82A9
:101F80001C82862F90E08E010F5F1F4FB8018B5E81
:101F90009D4F0E947111882389F080910C0290E07E
:101FA00044E050E0B8018B5E9D4F0E941D2321E06C
:101FB0002093C101892B69F410E019C08091C101FF
:101FC0008823D1F384E0F80111928A95E9F7109201
:101FD000C101E0910C02F0E0EB5EFD4F89819A8136
:101FE000AB81BC8180839183A283B38311E00E9483
:101FF000E9010DC070E06B5E7D4F80910C0290E0B6
:102000008B5E9D4F0E94FA110E94AE0F10E0812F4F
:102010002496E4E00C94FC22F894E82FE295EF700B
:10202000F0E031A1282F2F7081E090E001C0880FEF
:102030002A95EAF7982F9095932391A392A1892B43
:1020400082A3789408950F931F93CF93DF93C6E3F1
:10205000D1E089918F3F11F00E940C1081E0CA33CA
:10206000D807B9F7C0E3D1E006E311E089918F3FCB
:1020700011F00E940C100C171D07C1F7DF91CF91D2
:102080001F910F910895A0E0B0E0E9E4F0E10C9415
:10209000DC228C01C62FD0E0CE018A5C9E4F7C01F1
:1020A000FC0190819F3F09F447C0D62EF894E92F98
:1020B000E295EF70F0E081A19F7021E030E001C077
:1020C000220F9A95EAF7822B81A382A120952823DB
:1020D00022A378940E949C0FE0E3F1E046E351E0F4
:1020E00031E0C12C21912F3F89F0A22FA295AF7032
:1020F000B0E090968C9190E02F7002C095958795F6
:102100002A95E2F780FD02C0832F01C080E0C82A33
:10211000330F4E175F0731F7F70180818F3F11F0C2
:102120000E940C1061E0C11001C060E08D2D0E9482
:102130009E0FC00FD11FC882CDB7DEB7E8E00C9468
:10214000F8228091020180910201811102C094E085
:1021500001C090E090931D0284E0891B80930C02E3
:102160000E94231088E0E5E1F2E0DF01982F1D9244
:102170009A95E9F7EDE0F2E0DF011D928A95E9F723
:1021800084E00E9404110E94E6010895A8E0B0E0F6
:10219000ECECF0E10C94DF228E010F5F1F4F88E022
:1021A000F80111928A95E9F7F12C6F2DC8010E9470
:1021B0004310F394F4E0FF12F8CF48E050E0B80188
:1021C0008DE092E00E941D2321E0009709F420E0B9
:1021D000892B41F088E0F801ADE0B2E001900D926A
:1021E0008A95E1F760911D0270E06B5E7D4F44E0DF
:1021F0008DE092E00E940511182F0E94B10F812BF3
:102200002896E5E00C94FB220895EF92FF920F933D
:102210001F93CF93DF937C018B01C42F222349F0BE
:1022200081E08093C4010E948D1B9093C301809331
:10223000C2018091C401811102C080E01AC0809166
:10224000C2019091C3010E94A51B0597B0F3D0E095
:10225000AE01B701C8010E941D23892B39F0AE01E0
:10226000B701C8010E942A2381E001C080E01092DA
:10227000C401CDB7DEB7E6E00C94FA228091C70125
:1022800081110DC00E94AB22811102C082E001C009
:1022900081E08093C701823011F40E94A62281E080
:1022A0009091C701913009F080E008950E943E119D
:1022B00008950E945611809302010E943E118111DF
:1022C0000E94A91108950E943E11811102C00E942E
:1022D000AC11089581E09091C8019A3008F080E037
:1022E00008950F931F93CF93DF93EC018B0180919F
:1022F000C8018A3038F4B801CE010E94F71181116B
:102300001DC00AC08091C5019091C6010E94A51B05
:10231000843F914080F715C08091C8018F3F19F02C
:102320008F5F8093C8018091C8018A3060F00E945D
:102330008D1B9093C6018093C50103C01092C80104
:1023400002C080E001C081E0DF91CF911F910F9129
:1023500008950E94BE1808950E94C1180895A0E033
:10236000B0E0E5EBF1E10C94DD227901C82F880F94
:10237000DD0B41155105A9F0FE0193E0EE0FFF1FA3
:102380009A95E1F7ED5FFE4F8181928187539E4FD1
:10239000208130E04217530708F49A01A9010E94F6
:1023A0002A23CE010E94A919D82E8823D1F0011525
:1023B0001105B9F083E0CC0FDD1F8A95E1F7FE012E
:1023C000ED5FFE4F438150E00417150708F4A801A4
:1023D000CD5FDE4F6C817D8167537E4FC7010E94C8
:1023E0002A238D2DCDB7DEB7E7E00C94F9220E94A9
:1023F000F41208950E940B130895A4E0B0E0E3E006
:10240000F2E10C94E0226091DE017091DF01809195
:10241000E0019091E1010E94B41B643671058105D1
:10242000910528F10E94560FDC01CB010296A11DF7
:10243000B11D89839A83AB83BC8300E010E020E068
:1024400030E044E050E0BE016F5F7F4F82E00E94C9
:10245000AF11182F882361F00E94991B6093DE0151
:102460007093DF018093E0019093E10101C011E0DE
:10247000812F2496E4E00C94FC22A0E0B0E0E3E499
:10248000F2E10C94DA227C015B016A010E946A117C
:10249000811103C001E010E002C00AE010E0C1E0D9
:1024A000D0E0B501C701F6010995811115C021964B
:1024B0000C171D0794F0CC9F9001CD9F300D300D6F
:1024C000112480E090E045E34A95F1F70000019681
:1024D00082179307C1F7E5CF81E0CDB7DEB7EAE019
:1024E0000C94F622A5E0B0E0E8E7F2E10C94DA22E1
:1024F0005B01E0903A01F0903B0101E010E09E01A9
:102500002B5F3F4F40E050E060E070E080E00E94D1
:10251000AF11182F882309F43EC067018FEFC81A46
:10252000D80A6091DA017091DB018091DC01909111
:10253000DD010E94B41B643671058105910518F117
:1025400004E010E09E012F5F3F4F40E050E060E06C
:1025500070E081E00E94AF11182F64E070E0C601C6
:102560000E94E81591E02D81281390E0192351F184
:102570000E94991B6093DA017093DB018093DC0168
:102580009093DD0111C064E070E0C6010E94E8157F
:102590009D818913D5CFF70181819281A381B48177
:1025A00089839A83AB83BC83112361F089819A81EB
:1025B000AB81BC818093D6019093D701A093D801C1
:1025C000B093D9018091D6019091D701A091D80103
:1025D000B091D901F50180839183A283B383812FC8
:1025E0002596EAE00C94F6220F931F93CF93DF9386
:1025F000EC018B0142E752E10E943D12882331F049
:102600004DEF51E1B801CE010E943D12DF91CF9113
:102610001F910F9108950F931F93CF93DF93C09154
:102620003A01D0913B01CE01019624E0FB01DC018F
:1026300001900D922A95E1F764E070E00E94E815A0
:1026400088836D817E818F8198850091D201109160
:10265000D3012091D4013091D50160177107820711
:10266000930751F06093D2017093D3018093D4010A
:102670009093D5010E94390FDF91CF911F910F9157
:1026800008950E94791D0E94C10C0E94861D089524
:102690000E948B1D0E94D20C0E94A51D08950E94CD
:1026A000241B0E945F1D0E94AE0C0E9441130E94D9
:1026B00048130E94B70CFBCF8091E80180FF06C051
:1026C0006091200170E0660F771F26C081FF04C073
:1026D0006091200184E005C082FF07C06091200165
:1026E00088E0689FB001112417C09091E7019923F9
:1026F000D1F060911F01961788F72091200188E0A2
:10270000289F90011124929FA001939F500D1124A6
:1027100070E0CA010E94B8226038710540F461156A
:10272000710519F406C068E070E0862F08958FE700
:10273000089581E008958091E80180FF08C06091CC
:102740001C0170E0759567957595679521C081FFAF
:1027500006C060911C0170E07595679519C082FFF5
:1027600004C060911C0170E010C09091E6019923B3
:1027700099F060911B019617A0F780911C01899F29
:10278000C001112470E00E94B8226038710540F445
:102790006115710519F406C061E070E0862F089597
:1027A0008FE7089581E008958D3E21F40E945C1327
:1027B000819504C08E3E29F40E945C138093EC0145
:1027C00008958F3E21F40E945C13819504C0803FE0
:1027D00029F40E945C138093EB010895893F19F45A
:1027E0000E949B1305C08A3F31F40E949B13819580
:1027F0008093ED0108958B3F21F40E949B138195F6
:1028000004C08C3F29F40E949B138093EE0108952D
:102810009FE0980F983078F421E030E0A90102C0E1
:10282000440F551F9A95E2F7CA019091EA01892B4E
:102830008093EA0108958D3F21F48091E801816041
:102840000BC08E3F21F48091E801826005C08F3F6C
:1028500029F48091E80184608093E80108958D3E19
:1028600039F49091EC0197FF35C01092EC0159C0FA
:102870008E3E29F49091EC011916BCF32BC0909177
:10288000EB018F3E29F497FF25C01092EB0149C060
:10289000803F19F41916CCF31DC09091ED01893FCA
:1028A00029F41916BCF41092ED013BC08A3F19F4CB
:1028B00097FF10C0F8CF8B3F39F49091EE0197FF4E
:1028C00009C01092EE012DC08C3F21F49091EE01D1
:1028D0001916BCF39FE0980F983080F421E030E0A7
:1028E000A90102C0440F551F9A95E2F7CA018095CD
:1028F0009091EA0189238093EA0113C08D3F21F46E
:102900008091E8018E7F0BC08E3F21F48091E80119
:102910008D7F05C08F3F29F48091E8018B7F8093E4
:10292000E8018091EB01811106C08091EC018111D9
:1029300002C01092E7018091ED01811106C08091E3
:10294000EE01811102C01092E60108950E948D1BD4
:102950002091EB01211104C02091EC01222321F0F0
:102960009093E5018093E4012091ED01211104C0D1
:102970002091EE01222321F09093E3018093E20164
:1029800089EE91E00E944D1A0895E9EEF1E086E0AB
:10299000DF011D928A95E9F71092E7011092E60196
:1029A0001092E8010895FC01828181110DC083819C
:1029B00081110AC08481811107C091E08581811154
:1029C00001C090E0892F01C081E081700895A6E0E8
:1029D000B0E0EDEEF4E10C94E12286E0E9EEF1E006
:1029E000DE01119601900D928A95E1F71092EB01AC
:1029F0001092EC011092ED011092EE018B81811189
:102A000004C08C81882309F45FC08091E401909117
:102A1000E5010E94A51BAC019091E701992339F0D3
:102A20002091210130E02417350758F04DC0209146
:102A300022018AE0289F900111242417350718F0FD
:102A400043C09F3F19F09F5F9093E7011B811123C3
:102A500061F00E945C13111614F09FEF01C091E029
:102A6000989F902D11249093EB011C81112361F00C
:102A70000E945C13111614F09FEF01C091E0989F23
:102A8000902D11249093EC013091EB013323E1F070
:102A90002091EC012223C1F045EB3403C001112445
:102AA000992319F09093EB0103C081E08093EB012F
:102AB00035EB2303C0011124992319F09093EC0105
:102AC00003C081E08093EC018D81811104C08E816F
:102AD000882309F45FC08091E2019091E3010E9494
:102AE000A51BAC019091E601992339F020911D01BD
:102AF00030E02417350758F04DC020911E018AE0C0
:102B0000289F900111242417350718F043C09F3FD8
:102B100019F09F5F9093E6011D81112361F00E94DF
:102B20009B13111614F09FEF01C091E0989F902D18
:102B300011249093ED011E81112361F00E949B13DB
:102B4000111614F09FEF01C091E0989F902D112471
:102B50009093EE013091ED013323E1F02091EE01ED
:102B60002223C1F045EB3403C0011124992319F04D
:102B70009093ED0103C081E08093ED0135EB2303D9
:102B8000C0011124992319F09093EE0103C081E054
:102B90008093EE01BE016F5F7F4F89EE91E00E944E
:102BA000D61A811105C089EE91E00E94D3148111DB
:102BB0000E94A61486E0FE013196A9EEB1E00190D4
:102BC0000D928A95E1F72696E3E00C94FD22089594
:102BD000FC01680F791F8FEF91E3E617F70771F09B
:102BE0002191822728E030E087FF03C0880F8927E2
:102BF00001C0880F21503109B9F7EFCF0895CF9365
:102C0000DF93EC01FB018281882309F472C1C43097
:102C1000FDE5DF0760F4CB3F9CE5D907D0F49E01CA
:102C200022503C452431310508F064C112C0C63A37
:102C3000EDE5DE0771F030F4C2369DE5D90709F005
:102C400059C107C09E012E5A3D452330310508F079
:102C500051C10E94E50B90930B0280930A02C2318E
:102C6000ECE5DE0709F405C108F04BC0C9308CE57E
:102C7000D80709F4D2C000F5C530ECE5DE0709F449
:102C8000B9C078F4C3308CE5D80709F4AAC008F0BD
:102C9000AEC0C230DC4509F022C180910A028160D9
:102CA000A3C0C730FCE5DF0709F4AFC008F0B1C02E
:102CB00080910A02806198C0CD309CE5D90709F463
:102CC000C2C058F4CB30FCE5DF0709F4B0C008F00F
:102CD000B6C080910A028860A6C0CF309CE5D907B3
:102CE00009F4BFC008F4B2C0C031FCE5DF0709F445
:102CF000BCC0C131DC4509F0F2C080910A028F7B73
:102D000073C0C1159DE5D90709F4BEC088F5CB3F56
:102D1000FCE5DF0709F472C0B8F4C4319CE5D907BB
:102D200009F4C1C008F4ABC0C531DC4509F0D7C017
:102D300080910A0282FB222720F991E0922790FBE2
:102D400082F990FB83F950C0CD3F8CE5D80709F498
:102D500081C008F456C0CE3FECE5DE0709F47DC023
:102D6000CF3FDC4509F0BBC080910B0282605DC0A3
:102D7000C2368DE5D80709F4A6C068F4C230EDE587
:102D8000DE0709F49CC008F484C0C330DD4509F0B7
:102D9000A6C080E095C0CE3A9DE5D907F1F058F481
:102DA000C63ADD4509F09BC080910A02982F9095A4
:102DB00090FB80F919C0CF3A8DE5D807E1F1C03B0F
:102DC000DD4509F08CC080910B0283FB222720F99E
:102DD00091E0922790FB83F980C080910B0288607C
:102DE0007CC080910A02826080930A0278C0809140
:102DF0000A0219C080910A028860F6CF80910B0206
:102E000014C080910B02826068C080910A028062C7
:102E1000EBCF80910A028064E7CF0E94AE038091DD
:102E20000A028068E1CF8460DFCF816056C0809164
:102E30000A028E7FD9CF80910B02877F4EC080918E
:102E40000A028D7FD1CF80910A021CC080910A02B4
:102E5000877FCACF80910B021AC080910B028D7FB1
:102E60003CC080910A028F7EBFCF80910A028F7D85
:102E7000BBCF0E94AE0380910A028F77B5CF8091BD
:102E80000A02877F8B7FB0CF80910B028D7F8E7F70
:102E900024C080910B02982F909591708E7F892B82
:102EA00090FB81F91AC00E94AE0380910A0287FB51
:102EB000222720F991E0922790FB87F995CF81E0B6
:102EC0000E947F0C0CC080910A0284FB222720F90B
:102ED00091E0922790FB84F987CF80930B02809139
:102EE0000A0290910B020E94F60B0E94AE0380E052
:102EF00001C081E0DF91CF910895CF93DF938631B8
:102F00009C4541F5EB010E94E60A982F8A812091A9
:102F1000000130910101882379F09A7A81E009F467
:102F200080E08093EF01911102C069E201C065E386
:102F3000C9010E94C91A0AC08091EF01811102C023
:102F400069E201C065E3C9010E94CC1A0E942A0B04
:102F500080E001C081E0DF91CF9108950F931F932E
:102F6000CF93DF93C42FD22FFC0182818823B1F04D
:102F70004093F2010E948D1B9093F1018093F00128
:102F800080E28C0F883008F04CC0C77081E001C02F
:102F9000880FCA95EAF70E948E0343C08091F20120
:102FA00048132FC08091F0019091F1010E94A51B60
:102FB000C29738F510E21D0FCD17B9F080E28C0FE3
:102FC000883040F4C77081E001C0880FCA95EAF7E5
:102FD0000E949503183010F581E09D2F977001C075
:102FE000880F9A95EAF70E948E03802F0E9484032F
:102FF0001830B8F4D77081E001C0880FDA95EAF78D
:103000000AC080E28C0F883060F4C77081E001C094
:10301000880FCA95EAF70E94950303C0802F0E948B
:103020008403DF91CF911F910F9108950F939C011D
:10303000CB01243F4CE5340731F188F4293DFCE510
:103040003F07D9F02A3D4CE5340779F1283D3C454E
:10305000A9F506E221EE41EE68ED7CE52BC0263FA6
:10306000FCE53F07E1F0A8F0273F3C4539F507E2D2
:1030700025EE46EE67EF7CE51DC007E225EE45EE46
:1030800069ED7CE517C006E221EE40EE64EF7CE5D9
:1030900011C007E225EE44EE65EF7CE50BC006E2C9
:1030A00021EE42EE66EF7CE505C008E221E045EE48
:1030B0006AED7CE50E94AE1780E008C0FC018281C9
:1030C000882319F01092F20101C081E00F91089558
:1030D0008EE14A9B02C08150E1F74A9BFECF0895E2
:1030E0005A9880E28A95F1F75A9A0895FC012AE0ED
:1030F0002A95F1F728E090E080E031E040E14A9540
:10310000F1F7880F4A9B02C08160932700C000003E
:1031100040E14A95F1F7215089F720E12A95F1F72E
:1031200029B100C0000030E13A95F1F722FB2227D7
:1031300020F992272081920F90830895A1E0B0E0BA
:10314000E4EAF8E10C94DE2219828C017C01E60E9F
:10315000F11C0E151F0551F00E946818CE01019652
:103160000E947618F80181938F01F3CF81E0998155
:10317000911180E02196E6E00C94FA22529A5A9A34
:10318000089552985A9AEA9AE9E6F0E080818F7C95
:1031900080830895615091E001C0990F6A95EAF724
:1031A00020E031E0992361F0492F482319F05A9A21
:1031B000232701C05A9840E24A95F1F79695F2CF3D
:1031C000222311F05A9A01C05A9880E28A95F1F7A9
:1031D0005A980895FF920F931F93CF93DF93EC01BA
:1031E0008C01060F111DC017D10741F0F9900E9404
:1031F000701868E08F2D0E94CA18F5CFCDB7DEB7E2
:10320000E5E00C94FB221F920F920FB60F9211244F
:103210000F931F932F933F934F935F936F937F93DE
:103220008F939F93AF93BF93EF93FF93CF93DF93CE
:103230001F92CDB7DEB719820E946818CE010196A1
:103240000E947618082F069506950695902F96955C
:103250009570202F2570920F292F237096959695A3
:10326000920F877089135FC0898181115CC004301F
:1032700008F059C080E18A95F1F75A9A529A82E093
:103280008A95F1F700C05A9888E0089F80011124C0
:10329000D801AD5FBE4F1696ED91FC911797309710
:1032A000A9F060913A0170913B0114962D913C91E7
:1032B0001597260F371F11968D919C911297680FC5
:1032C000791F13964C9113978C910995F801ED5F36
:1032D000FE4F6381662351F080913A0190913B014A
:1032E00024813581820F931F0E94EA180E94701872
:1032F00080E18A95F1F75A9852985A9A80E18A9516
:10330000F1F7F801ED5FFE4F6081662351F0809187
:103310003A0190913B0121813281820F931F0E94DB
:103320009E180E9468180F90DF91CF91FF91EF9146
:10333000BF91AF919F918F917F916F915F914F91CD
:103340003F912F911F910F910F900FBE0F901F90E3
:1033500018950F931F93CF93DF93843091050CF052
:103360006DC0EC01F894529A5A9885E08A95F1F76D
:1033700000009C2F969595702C2F2570920F892F09
:1033800083709695969523E0CC0FDD1F2A95E1F783
:10339000980F8E01092B0E94701884E08A95F1F72E
:1033A00000C068E0802F0E94CA1880E18A95F1F77A
:1033B00052985A9A4A9902C000C0FCCF87E090E028
:1033C0004A9B08C0019721F4529A5A9A789436C0C1
:1033D00000C0F6CFFE01ED5FFE4F6381662381F0F2
:1033E00080913A0190913B0124813581820F931F96
:1033F0000E949E18811104C0529A5A9A78941FC054
:103400000E94681880E28A95F1F75A98529A80E1F2
:103410008A95F1F7CD5FDE4F6881662351F0809188
:103420003A0190913B0129813A81820F931F0E94BA
:10343000EA180E947018789481E001C080E0DF9162
:10344000CF911F910F91089590933D0180933C017E
:1034500008959093F9018093F80108950E943E1118
:10346000811103C08091F3010895E091F801F0917A
:10347000F901309729F00190F081E02D0995089528
:1034800080E00895E091F801F091F901309721F082
:103490000280F381E02D09950895E091F801F09103
:1034A000F901309739F022E0DC012C930480F5819A
:1034B000E02D099508952091F6013091F701281724
:1034C000390771F09093F7018093F601E091F801CC
:1034D000F091F901309721F00680F781E02D0995F0
:1034E00008952091F4013091F5012817390771F002
:1034F0009093F5018093F401E091F801F091F901C6
:10350000309721F00084F185E02D09950895FC01A4
:10351000329697E080E0915029F021912223D9F34F
:103520008F5FF9CF0895662349F0FC013296089623
:103530002191621729F0E817F907D1F780E0089583
:1035400081E008959C01FC0132969FEF80E041915B
:10355000461789F09F3F19F4411101C0982F8F5FE2
:103560008630A9F79F3F39F0F901E90FF11D97FD6A
:10357000FA956283089508959C012A5F3F4FFC01EC
:103580004281461301C01282019682179307B9F750
:1035900008950E94A21A08950E94BC1A08950296E6
:1035A00026E0FC0111922A95E9F7089546E050E0E3
:1035B0000E941D2321E0892B09F420E0822F089529
:1035C00008950E94E01A089583E08093FA010E9412
:1035D000E11A0895811102C081E001C082E0809368
:1035E000FA010E94E11A08950E94EA1A089581E002
:1035F0008093FA010E94E11A08950E94F71A089533
:1036000008950E94001B08950E94011B08950E94C6
:10361000001B08950E94001B08950E94001B08953E
:10362000CF930E940A1B0E94C6100E94071BC0E095
:103630008C2F0E94910F811104C0CF5FC830C1F759
:1036400001C081E0CF91089585B7806885BF85B7B7
:10365000806885BF08951F920F920FB60F921124B4
:103660008F939F93AF93BF938091FB01811113C000
:1036700080911E0290911F02A0912002B091210220
:103680004196A11DB11D80931E0290931F02A0932D
:103690002002B0932102BF91AF919F918F910F9023
:1036A0000FBE0F901F90189580912602843031F143
:1036B0000E945A021092FB0120E488E190E00FB6CC
:1036C000F894A895809360000FBE2093600083B7A4
:1036D000817F846083BF83B7816083BF789488953E
:1036E00083B78E7F83BF0FB6F894A8958091600052
:1036F000886180936000109260000FBE08950E9460
:10370000AE030E945F02089582E084BD93E095BD00
:103710009AEF97BD80936E0008952FB7F89480912B
:103720001E0290911F02A0912002B09121022FBF92
:1037300008952FB7F89460911E0270911F02809136
:103740002002909121022FBF08959C014FB7F89459
:1037500080911E0290911F02A0912002B09121023F
:103760004FBF821B930B0895CF92DF92EF92FF928F
:103770002FB7F894C0901E02D0901F02E090200254
:10378000F09021022FBFA7019601261B370B480B93
:10379000590BCA01B901FF90EF90DF90CF900895C7
:1037A00078941F920F920FB60F9211248F939F93CC
:1037B000AF93BF9380911E0290911F02A0912002AF
:1037C000B09121020196A11DB11D80931E0290931C
:1037D0001F02A0932002B0932102BF91AF919F914D
:1037E0008F910F900FBE0F901F90189587E797E766
:1037F00090930108809300089AE088E10FB6F8944E
:10380000A895809360000FBE90936000FFCF9AE070
:1038100088E10FB6F894A895809360000FBE90934E
:103820006000FFCF8091040208950895089522E07A
:103830002093E9002FEF3091E800215035FD06C0BC
:1038400035ED3A95F1F700002111F5CF2091E80010
:1038500025FF0BC040E050E066E070E00E94181EBB
:103860008091E8008E778093E8000895CF93DF93EE
:1038700021E02093E9002FEF3091E800215035FD41
:1038800006C035ED3A95F1F700002111F5CF2091F2
:10389000E80025FF14C0EC0140E050E068E070E073
:1038A0000E94181E8091E8008E778093E80088E0DF
:1038B000FE01ACEFB1E001900D928A95E1F7DF9146
:1038C000CF910895089580912502811109C00E9429
:1038D000A31F0E9400208091E20084608093E20098
:1038E00008951092250208950E94FD1A089560918E
:1038F000220281E0611101C080E00E94E41A089573
:103900009091260281E0943009F080E060912202DB
:103910000E94EA1A089542E061EC81E00E941C1FB7
:1039200042E261EC82E00E941C1F9091260281E03D
:10393000943009F080E0609122020E94F41A089508
:1039400080912802833009F461C030F4813071F035
:10395000823009F49BC008958A3009F487C08B3007
:1039600009F46CC0893009F0A9C020C080912702F9
:10397000813A09F0A3C08091E800877F8093E80036
:1039800080912B0290912C02892B21F468E08CEF1E
:1039900091E003C060E080E090E070E00E945D1E76
:1039A0008091E8008B778093E8000895809127024A
:1039B000813209F083C080912B0290912C020297F2
:1039C00008F07CC08091E800877F8093E8008091B8
:1039D000E80082FD05C0809126028111F8CF6EC0FB
:1039E0002091F3008091F20090E0922B029731F445
:1039F0008091F100813011F0863021F48091F10046
:103A0000809304028091E8008B7754C08091270254
:103A1000813A09F053C080912B0290912C02892B9E
:103A200009F04CC08091E800877F8093E800809186
:103A3000E80080FFFCCF80912F0137C080912702E2
:103A40008132E1F580912B0290912C02892BB1F506
:103A50008091E800877F8093E8000E94511F809149
:103A6000290280932F010E94AE03089580912702BE
:103A7000813221F58091E800877F8093E8000E94E1
:103A8000511F80912A028093050208958091270298
:103A9000813AA1F48091E800877F8093E8008091CB
:103AA000E80080FFFCCF809105028093F1008091B7
:103AB000E8008E778093E8000E94511F089584B734
:103AC000877F84BF0FB6F894A895809160008861C5
:103AD00080936000109260000FBE90E080E80FB607
:103AE000F89480936100909361000FBE0E94F71AD2
:103AF00008950E94A31F0E940020E2EEF0E0808162
:103B00008460808378940E948B22089583E291E000
:103B10000E94291A0895809126028530A9F4809187
:103B20002602853079F40E94541B80912402882358
:103B3000B1F30E94101B882391F30E94021E0E9481
:103B4000AE03EDCF0E947F1B089508950E94A91D2A
:103B50000895292F332723303105C9F060F421302F
:103B6000310581F02230310509F044C08BE390E04B
:103B70002AE132E043C021323105E1F02232310541
:103B800049F138C082E190E025E532E037C099275D
:103B90008130910549F028F0029761F5E8EFF1E0F6
:103BA00005C0E6E1F2E002C0E8E0F2E0849190E0D6
:103BB0009F0124C06115710541F061307105D1F498
:103BC00089E090E025E432E019C089E090E02CE241
:103BD00032E014C06115710541F06130710551F496
:103BE00089E490E027E632E009C080E490E020EB31
:103BF00032E004C080E090E020E030E0FA01318360
:103C00002083089580E189BD82E189BD09B400FE69
:103C1000FDCF8091D8008F7D8093D8008091E00007
:103C200082608093E0008091E00081FDFCCF0895E8
:103C3000A0E0B0E0EEE1FEE10C94DC22EC018B01AF
:103C40007A010E94701F811133C0E114F10439F030
:103C5000F70180819181081B190BC80FD91FC12C56
:103C6000D12C0115110519F18091E80085FD16C0D0
:103C70008091E8008E778093E800E114F10449F028
:103C8000F70180819181C80ED91ED182C08285E062
:103C90000FC00E94701F882321F30AC0899180936E
:103CA000F10001501109FFEFCF1ADF0ADACF80E0EF
:103CB000CDB7DEB7E8E00C94F82220912D023091C8
:103CC0002E022617370748F06115710539F4209147
:103CD000E8002E772093E80001C0B901FC0120E044
:103CE0006115710579F1809126028823F1F1853003
:103CF000F1F18091E80083FD3CC08091E80082FDF5
:103D00002EC08091E80080FFEBCF2091F3008091DE
:103D1000F20090E0922B6115710551F08830910509
:103D200038F421912093F100615071090196F3CF8D
:103D300021E0089709F020E08091E8008E778093D9
:103D4000E800CECF2111CFCF0AC080912602882370
:103D500061F0853061F08091E80083FD0AC08091B8
:103D6000E80082FFF2CF80E0089582E0089583E0CA
:103D7000089581E0089520912D0230912E0226179A
:103D8000370748F06115710539F42091E8002E7766
:103D90002093E80001C0B901FC0120E06115710524
:103DA00091F180912602882309F440C0853009F4FE
:103DB0003FC08091E80083FD3DC08091E80082FD16
:103DC0002FC08091E80080FFE9CF2091F30080911F
:103DD000F20090E0922B6115710559F08830910541
:103DE00040F424912093F1003196615071090196BD
:103DF000F2CF21E0089709F020E08091E8008E776B
:103E00008093E800CBCF2111CCCF0AC0809126024D
:103E1000882361F0853061F08091E80083FD0AC05D
:103E20008091E80082FFF2CF80E0089582E008955B
:103E300083E0089581E00895982F973068F5909376
:103E4000E900981739F07091EC002091ED00509145
:103E5000F00003C0242F762F50E021FD02C09F5FA9
:103E6000ECCF3091EB003E7F3093EB003091ED00D2
:103E70003D7F3093ED003091EB0031603093EB00EB
:103E80007093EC002093ED005093F0002091EE0031
:103E900027FDE5CF80E008958F708093E90081E0F1
:103EA00008958091270287FF11C08091E80082FD6C
:103EB00005C0809126028111F8CF11C08091E800E1
:103EC0008B770BC080912602882349F08091E8000F
:103ED00080FFF8CF8091E8008E778093E800089506
:103EE0002091E4003091E50095E64091EC00842FAC
:103EF000817040FF23C08091E80080FD1DC080914B
:103F00002602882399F0853099F08091EB0085FD99
:103F100011C04091E4005091E5002417350729F3C2
:103F2000915011F09A01E1CF84E0089582E0089564
:103F300083E0089581E0089580E008954091E800CD
:103F400042FFDDCF08950E9412200E941A20E0EE69
:103F5000F0E0808181608083E8EDF0E080818F7700
:103F6000808319BCA7EDB0E08C918E7F8C9380810B
:103F70008F7E80831092250208950F931F93CF9315
:103F8000DF930E9412200E941A20C8EDD0E08881A1
:103F90008F77888388818068888388818F7D8883F4
:103FA00019BC109226021092220210922402109242
:103FB000230200EE10E0F80180818B7F80838881EE
:103FC0008160888342E060E080E00E941C1FE1EE97
:103FD000F0E080818E7F8083E2EEF0E0808181607E
:103FE0008083808188608083F80180818E7F8083D8
:103FF000888180618883DF91CF911F910F9108950F
:10400000E8EDF0E080818F7E8083E7EDF0E0808155
:104010008160808384E082BF81E0809325020E94DA
:10402000BD1F0895E8EDF0E080818E7F80831092BF
:10403000E20008951092DA001092E10008951F92B4
:104040000F920FB60F9211242F933F934F935F93CC
:104050006F937F938F939F93AF93BF93EF93FF9350
:104060008091E10082FF0BC08091E20082FF07C0D7
:104070008091E1008B7F8093E1000E948A228091F1
:10408000DA0080FF1FC08091D80080FF1BC08091A4
:10409000DA008E7F8093DA008091D90080FF0DC016
:1040A00080E189BD82E189BD09B400FEFDCF81E0D8
:1040B000809326020E94631C05C019BC1092260240
:1040C0000E94711C8091E10080FF19C08091E20084
:1040D00080FF15C08091E2008E7F8093E200809186
:1040E000E20080618093E2008091D800806280933A
:1040F000D80019BC85E0809326020E94771C80912D
:10410000E10084FF30C08091E20084FF2CC080E198
:1041100089BD82E189BD09B400FEFDCF8091D80040
:104120008F7D8093D8008091E1008F7E8093E100A5
:104130008091E2008F7E8093E2008091E2008160B6
:104140008093E20080912202882311F084E007C06E
:104150008091E30087FD02C081E001C083E080938D
:1041600026020E94801C8091E10083FF29C080917B
:10417000E20083FF25C08091E100877F8093E1000A
:1041800082E080932602109222028091E1008E7FCD
:104190008093E1008091E2008E7F8093E200809125
:1041A000E20080618093E20042E060E080E00E94F3
:1041B0001C1F8091F00088608093F0000E94741CA6
:1041C000FF91EF91BF91AF919F918F917F916F91EF
:1041D0005F914F913F912F910F900FBE0F901F90C5
:1041E00018951F920F920FB60F9211242F933F93A1
:1041F0004F935F936F937F938F939F93AF93BF93EF
:10420000CF93DF93EF93FF93C091E900CF7080913C
:10421000EC00D82FD17080FDD0E81092E900809199
:10422000F000877F8093F00078940E9435211092EF
:10423000E9008091F00088608093F000CD2BCF7072
:10424000C093E900FF91EF91DF91CF91BF91AF91C2
:104250009F918F917F916F915F914F913F912F919E
:104260000F900FBE0F901F901895AAE2B0E0EBE3FD
:10427000F1E20C94E122E7E2F2E08091F100819317
:1042800022E0EF32F207C9F70E94A01C8091E800FB
:1042900083FF2EC18091270290912802492F50E080
:1042A0004A30510508F024C1FA01EE59FF4F0C9431
:1042B000CC22803821F0823809F01AC108C08091E0
:1042C000230290912402992389F082600FC080918B
:1042D0002B028F70873008F00BC18093E90080912A
:1042E000EB0085FB882780F91092E9009091E800A7
:1042F000977F9093E8008093F1001092F100D1C075
:10430000282F2D7F09F0F4C0882319F0823061F046
:10431000EFC080912902813009F0EAC0933009F0A2
:1043200080E0809324022EC08091290281112AC04E
:1043300080912B028F702FEF280F263008F0D8C005
:104340008093E9002091EB0020FF1CC0933021F402
:104350008091EB00806214C09091EB00906190938B
:10436000EB0021E030E0A90102C0440F551F8A95FF
:10437000E2F74093EA001092EA008091EB00886037
:104380008093EB001092E9008091E800877F809392
:10439000E8000E94511FACC08111AAC010912902EF
:1043A0001F778091E3008078812B8093E3008091D8
:1043B000E800877F8093E8000E94511F8091E80009
:1043C00080FFFCCF8091E30080688093E3001111AF
:1043D00002C082E001C083E08093260289C0805839
:1043E000823008F085C08091290290912A028C3D8C
:1043F00053E0950779F583E08A838AE289834FB792
:10440000F894DE01139620E03EE051E2E32FF0E065
:1044100050935700E49120FF03C0E295EF703F5F97
:10442000EF708E2F90E0EA3010F0C79601C0C09672
:104430008D939D932F5F243149F74FBF8091E80002
:10444000877F8093E8006AE270E0CE0101960E94C7
:104450005D1E16C060912B0270912C02AE014F5F61
:104460005F4F0E94A61DBC01892B09F441C09091A9
:10447000E800977F9093E80089819A810E94BB1E93
:104480008091E8008B778093E80032C0803881F516
:104490008091E800877F8093E800809122028093DA
:1044A000F1008091E8008E7772CF811121C0809158
:1044B000290290912A0299270297D4F48091E8006A
:1044C000877F8093E80080912902809322020E94D6
:1044D000511F80912202811106C08091E30087FD67
:1044E00002C081E001C084E0809326020E948B1C00
:1044F0008091E80083FF0AC08091E800877F809365
:10450000E8008091EB0080628093EB00AA96E3E0E4
:104510000C94FD220895CF93809126028823A1F068
:10452000C091E900CF709091EC00892F817090FDCF
:1045300080E8C82B1092E9008091E80083FD0E947A
:104540003521CF70C093E900CF9108950E94A31F39
:10455000109226020895E8EDF0E08081806180836A
:104560008AE18A95F1F700C08091D90081700895A1
:1045700097FB072E16F4009407D077FD09D00E9410
:10458000092307FC05D03EF4909581959F4F08952F
:10459000709561957F4F0895EE0FFF1F0590F49180
:1045A000E02D09942F923F924F925F926F927F92EB
:1045B0008F929F92AF92BF92CF92DF92EF92FF9233
:1045C0000F931F93CF93DF93CDB7DEB7CA1BDB0BDF
:1045D0000FB6F894DEBF0FBECDBF09942A88398884
:1045E00048885F846E847D848C849B84AA84B9848B
:1045F000C884DF80EE80FD800C811B81AA81B98197
:10460000CE0FD11D0FB6F894DEBF0FBECDBFED01AA
:104610000895AA1BBB1B51E107C0AA1FBB1FA61709
:10462000B70710F0A61BB70B881F991F5A95A9F75B
:1046300080959095BC01CD010895FB01DC0104C07B
:104640008D910190801921F441505040C8F7881B8A
:10465000990B0895FB01DC0102C001900D924150BD
:104660005040D8F70895F999FECF92BD81BDF89AD0
:10467000992780B50895A8E1B0E042E050E00C949D
:104680006723262FF999FECF92BD81BDF89A019735
:1046900000B4021639F01FBA20BD0FB6F894FA9A8A
:1046A000F99A0FBE08950396272F0E9442230E9475
:1046B0004123252F0E944223242F0C94422301964C
:1046C000272F0E9442230C944123DC01CB01FC01E3
:1046D000F999FECF06C0F2BDE1BDF89A319600B45B
:0E46E0000D9241505040B8F70895F894FFCF66
:1046EE00A401010000000100000000000000040110
:1046FE000000000405000000000000280850011E04
:10470E000A1401121C361C171C621C151C161C01E7
:0C471E00F4F5F6F73133946697C6C90134
:00000001FF
